{"contracts/DEX.sol":{"DEX":{"abi":[{"inputs":[{"internalType":"address","name":"_tokenA","type":"address"},{"internalType":"address","name":"_tokenB","type":"address"}],"stateMutability":"nonpayable","type":"constructor"},{"anonymous":false,"inputs":[{"indexed":true,"internalType":"address","name":"provider","type":"address"},{"indexed":false,"internalType":"uint256","name":"amountA","type":"uint256"},{"indexed":false,"internalType":"uint256","name":"amountB","type":"uint256"},{"indexed":false,"internalType":"uint256","name":"liquidityMinted","type":"uint256"}],"name":"LiquidityAdded","type":"event"},{"anonymous":false,"inputs":[{"indexed":true,"internalType":"address","name":"provider","type":"address"},{"indexed":false,"internalType":"uint256","name":"amountA","type":"uint256"},{"indexed":false,"internalType":"uint256","name":"amountB","type":"uint256"},{"indexed":false,"internalType":"uint256","name":"liquidityBurned","type":"uint256"}],"name":"LiquidityRemoved","type":"event"},{"anonymous":false,"inputs":[{"indexed":true,"internalType":"address","name":"trader","type":"address"},{"indexed":true,"internalType":"address","name":"tokenIn","type":"address"},{"indexed":true,"internalType":"address","name":"tokenOut","type":"address"},{"indexed":false,"internalType":"uint256","name":"amountIn","type":"uint256"},{"indexed":false,"internalType":"uint256","name":"amountOut","type":"uint256"}],"name":"Swap","type":"event"},{"inputs":[{"internalType":"uint256","name":"amountA","type":"uint256"},{"internalType":"uint256","name":"amountB","type":"uint256"}],"name":"addLiquidity","outputs":[{"internalType":"uint256","name":"liquidityMinted","type":"uint256"}],"stateMutability":"nonpayable","type":"function"},{"inputs":[{"internalType":"uint256","name":"amountIn","type":"uint256"},{"internalType":"uint256","name":"reserveIn","type":"uint256"},{"internalType":"uint256","name":"reserveOut","type":"uint256"}],"name":"getAmountOut","outputs":[{"internalType":"uint256","name":"amountOut","type":"uint256"}],"stateMutability":"pure","type":"function"},{"inputs":[],"name":"getPrice","outputs":[{"internalType":"uint256","name":"price","type":"uint256"}],"stateMutability":"view","type":"function"},{"inputs":[],"name":"getReserves","outputs":[{"internalType":"uint256","name":"_reserveA","type":"uint256"},{"internalType":"uint256","name":"_reserveB","type":"uint256"}],"stateMutability":"view","type":"function"},{"inputs":[{"internalType":"address","name":"","type":"address"}],"name":"liquidity","outputs":[{"internalType":"uint256","name":"","type":"uint256"}],"stateMutability":"view","type":"function"},{"inputs":[{"internalType":"uint256","name":"liquidityAmount","type":"uint256"}],"name":"removeLiquidity","outputs":[{"internalType":"uint256","name":"amountA","type":"uint256"},{"internalType":"uint256","name":"amountB","type":"uint256"}],"stateMutability":"nonpayable","type":"function"},{"inputs":[],"name":"reserveA","outputs":[{"internalType":"uint256","name":"","type":"uint256"}],"stateMutability":"view","type":"function"},{"inputs":[],"name":"reserveB","outputs":[{"internalType":"uint256","name":"","type":"uint256"}],"stateMutability":"view","type":"function"},{"inputs":[{"internalType":"uint256","name":"amountAIn","type":"uint256"}],"name":"swapAForB","outputs":[{"internalType":"uint256","name":"amountBOut","type":"uint256"}],"stateMutability":"nonpayable","type":"function"},{"inputs":[{"internalType":"uint256","name":"amountBIn","type":"uint256"}],"name":"swapBForA","outputs":[{"internalType":"uint256","name":"amountAOut","type":"uint256"}],"stateMutability":"nonpayable","type":"function"},{"inputs":[],"name":"tokenA","outputs":[{"internalType":"address","name":"","type":"address"}],"stateMutability":"view","type":"function"},{"inputs":[],"name":"tokenB","outputs":[{"internalType":"address","name":"","type":"address"}],"stateMutability":"view","type":"function"},{"inputs":[],"name":"totalLiquidity","outputs":[{"internalType":"uint256","name":"","type":"uint256"}],"stateMutability":"view","type":"function"}],"evm":{"bytecode":{"linkReferences":{},"object":"60806040523480156200001157600080fd5b50604051620022863803806200228683398181016040528101906200003791906200018a565b60016000819055506200005b6765f3c34bc929f37460c01b6200011d60201b60201c565b62000077672c2f9bdbbaa969b260c01b6200011d60201b60201c565b81600160006101000a81548173ffffffffffffffffffffffffffffffffffffffff021916908373ffffffffffffffffffffffffffffffffffffffff160217905550620000d467bc2e19c8996c194e60c01b6200011d60201b60201c565b80600260006101000a81548173ffffffffffffffffffffffffffffffffffffffff021916908373ffffffffffffffffffffffffffffffffffffffff1602179055505050620001d1565b50565b600080fd5b600073ffffffffffffffffffffffffffffffffffffffff82169050919050565b6000620001528262000125565b9050919050565b620001648162000145565b81146200017057600080fd5b50565b600081519050620001848162000159565b92915050565b60008060408385031215620001a457620001a362000120565b5b6000620001b48582860162000173565b9250506020620001c78582860162000173565b9150509250929050565b6120a580620001e16000396000f3fe608060405234801561001057600080fd5b50600436106100cf5760003560e01c80635f64b55b1161008c5780639cd441da116100665780639cd441da1461021a578063b8c876b11461024a578063dc5fa6c51461027a578063e619a49814610298576100cf565b80635f64b55b146101ad57806398d5fdca146101cb5780639c8f9f23146101e9576100cf565b806303102091146100d4578063054d50d4146101045780630902f1ac146101345780630fc63d101461015357806315770f921461017157806319e36f3b1461018f575b600080fd5b6100ee60048036038101906100e991906119d9565b6102c8565b6040516100fb9190611a15565b60405180910390f35b61011e60048036038101906101199190611a30565b6106ab565b60405161012b9190611a15565b60405180910390f35b61013c6107b8565b60405161014a929190611a83565b60405180910390f35b61015b610805565b6040516101689190611aed565b60405180910390f35b61017961082b565b6040516101869190611a15565b60405180910390f35b610197610831565b6040516101a49190611a15565b60405180910390f35b6101b5610837565b6040516101c29190611aed565b60405180910390f35b6101d361085d565b6040516101e09190611a15565b60405180910390f35b61020360048036038101906101fe91906119d9565b610958565b604051610211929190611a83565b60405180910390f35b610234600480360381019061022f9190611b08565b610de9565b6040516102419190611a15565b60405180910390f35b610264600480360381019061025f9190611b74565b61134e565b6040516102719190611a15565b60405180910390f35b610282611366565b60405161028f9190611a15565b60405180910390f35b6102b260048036038101906102ad91906119d9565b61136c565b6040516102bf9190611a15565b60405180910390f35b60006102de67a321c0e9929a47d860c01b61174f565b6102e6611752565b6102fa672bbd8abf52c59fe360c01b61174f565b61030e679591558f67c9c1ce60c01b61174f565b610322674dacc0388b1e1ea560c01b61174f565b61033667bf8d978f82225bf560c01b61174f565b61034a6741d7d696264c935060c01b61174f565b6000821161038d576040517f08c379a000000000000000000000000000000000000000000000000000000000815260040161038490611bfe565b60405180910390fd5b6103a16720884661b6ea712660c01b61174f565b6103b567e932015703660a4560c01b61174f565b6103c4826003546004546106ab565b90506103da673dd1eb2adc9fbbb360c01b61174f565b6103ee670d7e1c77e6c5331660c01b61174f565b600160009054906101000a900473ffffffffffffffffffffffffffffffffffffffff1673ffffffffffffffffffffffffffffffffffffffff166323b872dd3330856040518463ffffffff1660e01b815260040161044d93929190611c1e565b6020604051808303816000875af115801561046c573d6000803e3d6000fd5b505050506040513d601f19601f820116820180604052508101906104909190611c8d565b506104a5672a7303977011dccd60c01b61174f565b6104b9674ecfd303a1c2cd6d60c01b61174f565b600260009054906101000a900473ffffffffffffffffffffffffffffffffffffffff1673ffffffffffffffffffffffffffffffffffffffff1663a9059cbb33836040518363ffffffff1660e01b8152600401610516929190611cba565b6020604051808303816000875af1158015610535573d6000803e3d6000fd5b505050506040513d601f19601f820116820180604052508101906105599190611c8d565b5061056e6716cb4f8705bd327660c01b61174f565b81600360008282546105809190611d12565b9250508190555061059b67f7e74a2f9772dac660c01b61174f565b80600460008282546105ad9190611d46565b925050819055506105c867b62c34483019dd4e60c01b61174f565b6105dc67e6b0daf72d9efcbe60c01b61174f565b600260009054906101000a900473ffffffffffffffffffffffffffffffffffffffff1673ffffffffffffffffffffffffffffffffffffffff16600160009054906101000a900473ffffffffffffffffffffffffffffffffffffffff1673ffffffffffffffffffffffffffffffffffffffff163373ffffffffffffffffffffffffffffffffffffffff167fcd3829a3813dc3cdd188fd3d01dcf3268c16be2fdd2dd21d0665418816e460628585604051610696929190611a83565b60405180910390a46106a66117a1565b919050565b60006106c1676953ce5ece2e529160c01b61174f565b6106d567473f4b851185788760c01b61174f565b6106e96715de1fe9213e8ddf60c01b61174f565b60006103e5856106f99190611d7a565b905061070f67b54ac4c186b9ea1460c01b61174f565b6107236733f133191ccb07b460c01b61174f565b600083826107319190611d7a565b905061074767f888c0fe2f7f5e5960c01b61174f565b61075b673d2abd1ccf1986c460c01b61174f565b6000826103e88761076c9190611d7a565b6107769190611d12565b905061078c6743fd2b5323871dc360c01b61174f565b6107a0673a7dfa93c595991e60c01b61174f565b80826107ac9190611deb565b93505050509392505050565b6000806107cf679ac77516ba02c80d60c01b61174f565b6107e36724f177a0d932418160c01b61174f565b6107f767318ef88d0fda68e460c01b61174f565b600354600454915091509091565b600160009054906101000a900473ffffffffffffffffffffffffffffffffffffffff1681565b60055481565b60045481565b600260009054906101000a900473ffffffffffffffffffffffffffffffffffffffff1681565b600061087367e539c347f7717da260c01b61174f565b6108876702001518010c532460c01b61174f565b61089b673e68aefe9335f90f60c01b61174f565b6108af67e2fbc817c571736660c01b61174f565b6000600354116108f4576040517f08c379a00000000000000000000000000000000000000000000000000000000081526004016108eb90611e68565b60405180910390fd5b61090867a93e88e6c60eb15a60c01b61174f565b61091c67498a917f92b53a1b60c01b61174f565b61093067bb13032e9472cdae60c01b61174f565b600354670de0b6b3a76400006004546109499190611d7a565b6109539190611deb565b905090565b60008061096f670b6430981a69f85060c01b61174f565b610977611752565b61098b67b4008791d7f74ce060c01b61174f565b61099f67ee2d05a1c8f2013a60c01b61174f565b6109b3675193c37a7e7e40e660c01b61174f565b6109c76788286fb0ad4a105f60c01b61174f565b6109db679881bf915a7173a460c01b61174f565b600083118015610a2a575082600660003373ffffffffffffffffffffffffffffffffffffffff1673ffffffffffffffffffffffffffffffffffffffff1681526020019081526020016000205410155b610a69576040517f08c379a0000000000000000000000000000000000000000000000000000000008152600401610a6090611ed4565b60405180910390fd5b610a7d67db710c587e56d97e60c01b61174f565b610a91671753c83299a9a6df60c01b61174f565b60055460035484610aa29190611d7a565b610aac9190611deb565b9150610ac26725704aab8c70c43660c01b61174f565b60055460045484610ad39190611d7a565b610add9190611deb565b9050610af3674683a4f53c306e6f60c01b61174f565b82600660003373ffffffffffffffffffffffffffffffffffffffff1673ffffffffffffffffffffffffffffffffffffffff1681526020019081526020016000206000828254610b429190611d46565b92505081905550610b5d67b2cf6f801c23fc3160c01b61174f565b8260056000828254610b6f9190611d46565b92505081905550610b8a673be31547e835ef2d60c01b61174f565b8160036000828254610b9c9190611d46565b92505081905550610bb767f13665ca64ff8a3b60c01b61174f565b8060046000828254610bc99190611d46565b92505081905550610be4678cf62a0879b15d5f60c01b61174f565b610bf8678a448951620511ad60c01b61174f565b600160009054906101000a900473ffffffffffffffffffffffffffffffffffffffff1673ffffffffffffffffffffffffffffffffffffffff1663a9059cbb33846040518363ffffffff1660e01b8152600401610c55929190611cba565b6020604051808303816000875af1158015610c74573d6000803e3d6000fd5b505050506040513d601f19601f82011682018060405250810190610c989190611c8d565b50610cad671c26e017c80d866f60c01b61174f565b610cc16776663a1f0e8c615d60c01b61174f565b600260009054906101000a900473ffffffffffffffffffffffffffffffffffffffff1673ffffffffffffffffffffffffffffffffffffffff1663a9059cbb33836040518363ffffffff1660e01b8152600401610d1e929190611cba565b6020604051808303816000875af1158015610d3d573d6000803e3d6000fd5b505050506040513d601f19601f82011682018060405250810190610d619190611c8d565b50610d766755bf4a0cecd23b3760c01b61174f565b610d8a67e980f429acee723260c01b61174f565b3373ffffffffffffffffffffffffffffffffffffffff167f1dc8bb69df2b8e91fbdcbfcf93d951b3f0000f085a95fe3f7946d6161439245d838386604051610dd493929190611ef4565b60405180910390a2610de46117a1565b915091565b6000610dff673bac63d17d0e129f60c01b61174f565b610e07611752565b610e1b678045c42e977c0bf260c01b61174f565b610e2f67248134bd83595e2160c01b61174f565b610e43674a26f908d9a6cd3b60c01b61174f565b610e57679649b6af7c8ac5fe60c01b61174f565b610e6b67ffa66b7c1c4479a460c01b61174f565b600083118015610e7b5750600082115b610eba576040517f08c379a0000000000000000000000000000000000000000000000000000000008152600401610eb190611f77565b60405180910390fd5b610ece6731e36e4db5aa0c7860c01b61174f565b610ee267fe86e7e53b5579ad60c01b61174f565b610ef66786dae75b47923c3360c01b61174f565b600060055403610f4357610f14671286726e50da1cee60c01b61174f565b610f28671339b100115b458960c01b61174f565b610f3c8284610f379190611d7a565b6117ab565b9050610fac565b610f5767763b05f9bf22c40b60c01b61174f565b610f6b6754d2e3ac0603403360c01b61174f565b610fa960035460055485610f7f9190611d7a565b610f899190611deb565b60045460055485610f9a9190611d7a565b610fa49190611deb565b6118a4565b90505b610fc0679d7b6353aea6238560c01b61174f565b610fd467c62a239bbd9b11f360c01b61174f565b610fe8678134c601a65eb46360c01b61174f565b6000811161102b576040517f08c379a000000000000000000000000000000000000000000000000000000000815260040161102290611fe3565b60405180910390fd5b61103f673508785b0e6ea6ed60c01b61174f565b6110536772eaaff1427837f160c01b61174f565b611067671d291acdb2cfef3560c01b61174f565b600160009054906101000a900473ffffffffffffffffffffffffffffffffffffffff1673ffffffffffffffffffffffffffffffffffffffff166323b872dd3330866040518463ffffffff1660e01b81526004016110c693929190611c1e565b6020604051808303816000875af11580156110e5573d6000803e3d6000fd5b505050506040513d601f19601f820116820180604052508101906111099190611c8d565b5061111e67eb63b831962214f160c01b61174f565b611132673259271bfa9f1e4360c01b61174f565b600260009054906101000a900473ffffffffffffffffffffffffffffffffffffffff1673ffffffffffffffffffffffffffffffffffffffff166323b872dd3330856040518463ffffffff1660e01b815260040161119193929190611c1e565b6020604051808303816000875af11580156111b0573d6000803e3d6000fd5b505050506040513d601f19601f820116820180604052508101906111d49190611c8d565b506111e9677c2be90e0a45925d60c01b61174f565b82600360008282546111fb9190611d12565b9250508190555061121667e16bd9760f19329160c01b61174f565b81600460008282546112289190611d12565b925050819055506112436782b05ddf9792d38760c01b61174f565b80600560008282546112559190611d12565b92505081905550611270676f4e66778c0431c360c01b61174f565b80600660003373ffffffffffffffffffffffffffffffffffffffff1673ffffffffffffffffffffffffffffffffffffffff16815260200190815260200160002060008282546112bf9190611d12565b925050819055506112da67677bbc573ac2414760c01b61174f565b6112ee672837befd77f9ac7560c01b61174f565b3373ffffffffffffffffffffffffffffffffffffffff167f64b83944e79c3ce8d4c297411de637c3e102d064677aac0c163976ebdcd6f50e84848460405161133893929190611ef4565b60405180910390a26113486117a1565b92915050565b60066020528060005260406000206000915090505481565b60035481565b6000611382670b06b65d72a63f0b60c01b61174f565b61138a611752565b61139e67bba9ac3aee2927f360c01b61174f565b6113b26703b3953b286ce95460c01b61174f565b6113c66768118778050164e260c01b61174f565b6113da6744202dce80bbaa1c60c01b61174f565b6113ee674b9c9dd677b1126160c01b61174f565b60008211611431576040517f08c379a000000000000000000000000000000000000000000000000000000000815260040161142890611bfe565b60405180910390fd5b61144567d2d8a20188d2c11560c01b61174f565b61145967ddecba2c80f8017c60c01b61174f565b611468826004546003546106ab565b905061147e67a49f49ea9cdd70ff60c01b61174f565b61149267a3b54dd6404cebe560c01b61174f565b600260009054906101000a900473ffffffffffffffffffffffffffffffffffffffff1673ffffffffffffffffffffffffffffffffffffffff166323b872dd3330856040518463ffffffff1660e01b81526004016114f193929190611c1e565b6020604051808303816000875af1158015611510573d6000803e3d6000fd5b505050506040513d601f19601f820116820180604052508101906115349190611c8d565b5061154967b7097491d7dd527f60c01b61174f565b61155d671c1a746d43a0c27360c01b61174f565b600160009054906101000a900473ffffffffffffffffffffffffffffffffffffffff1673ffffffffffffffffffffffffffffffffffffffff1663a9059cbb33836040518363ffffffff1660e01b81526004016115ba929190611cba565b6020604051808303816000875af11580156115d9573d6000803e3d6000fd5b505050506040513d601f19601f820116820180604052508101906115fd9190611c8d565b50611612678a60e7fe13a663b660c01b61174f565b81600460008282546116249190611d12565b9250508190555061163f67ae2471af1e02f87160c01b61174f565b80600360008282546116519190611d46565b9250508190555061166c67d7bab64f774c960a60c01b61174f565b611680678105dffc6ff5de6b60c01b61174f565b600160009054906101000a900473ffffffffffffffffffffffffffffffffffffffff1673ffffffffffffffffffffffffffffffffffffffff16600260009054906101000a900473ffffffffffffffffffffffffffffffffffffffff1673ffffffffffffffffffffffffffffffffffffffff163373ffffffffffffffffffffffffffffffffffffffff167fcd3829a3813dc3cdd188fd3d01dcf3268c16be2fdd2dd21d0665418816e46062858560405161173a929190611a83565b60405180910390a461174a6117a1565b919050565b50565b600260005403611797576040517f08c379a000000000000000000000000000000000000000000000000000000000815260040161178e9061204f565b60405180910390fd5b6002600081905550565b6001600081905550565b60008082036117bd576000905061189f565b600060016117ca846118bd565b901c6001901b905060018184816117e4576117e3611dbc565b5b048201901c905060018184816117fd576117fc611dbc565b5b048201901c9050600181848161181657611815611dbc565b5b048201901c9050600181848161182f5761182e611dbc565b5b048201901c9050600181848161184857611847611dbc565b5b048201901c9050600181848161186157611860611dbc565b5b048201901c9050600181848161187a57611879611dbc565b5b048201901c905061189b8182858161189557611894611dbc565b5b046118a4565b9150505b919050565b60008183106118b357816118b5565b825b905092915050565b600080600090506000608084901c11156118df57608083901c92506080810190505b6000604084901c11156118fa57604083901c92506040810190505b6000602084901c111561191557602083901c92506020810190505b6000601084901c111561193057601083901c92506010810190505b6000600884901c111561194b57600883901c92506008810190505b6000600484901c111561196657600483901c92506004810190505b6000600284901c111561198157600283901c92506002810190505b6000600184901c1115611995576001810190505b80915050919050565b600080fd5b6000819050919050565b6119b6816119a3565b81146119c157600080fd5b50565b6000813590506119d3816119ad565b92915050565b6000602082840312156119ef576119ee61199e565b5b60006119fd848285016119c4565b91505092915050565b611a0f816119a3565b82525050565b6000602082019050611a2a6000830184611a06565b92915050565b600080600060608486031215611a4957611a4861199e565b5b6000611a57868287016119c4565b9350506020611a68868287016119c4565b9250506040611a79868287016119c4565b9150509250925092565b6000604082019050611a986000830185611a06565b611aa56020830184611a06565b9392505050565b600073ffffffffffffffffffffffffffffffffffffffff82169050919050565b6000611ad782611aac565b9050919050565b611ae781611acc565b82525050565b6000602082019050611b026000830184611ade565b92915050565b60008060408385031215611b1f57611b1e61199e565b5b6000611b2d858286016119c4565b9250506020611b3e858286016119c4565b9150509250929050565b611b5181611acc565b8114611b5c57600080fd5b50565b600081359050611b6e81611b48565b92915050565b600060208284031215611b8a57611b8961199e565b5b6000611b9884828501611b5f565b91505092915050565b600082825260208201905092915050565b7f5a65726f20616d6f756e74000000000000000000000000000000000000000000600082015250565b6000611be8600b83611ba1565b9150611bf382611bb2565b602082019050919050565b60006020820190508181036000830152611c1781611bdb565b9050919050565b6000606082019050611c336000830186611ade565b611c406020830185611ade565b611c4d6040830184611a06565b949350505050565b60008115159050919050565b611c6a81611c55565b8114611c7557600080fd5b50565b600081519050611c8781611c61565b92915050565b600060208284031215611ca357611ca261199e565b5b6000611cb184828501611c78565b91505092915050565b6000604082019050611ccf6000830185611ade565b611cdc6020830184611a06565b9392505050565b7f4e487b7100000000000000000000000000000000000000000000000000000000600052601160045260246000fd5b6000611d1d826119a3565b9150611d28836119a3565b9250828201905080821115611d4057611d3f611ce3565b5b92915050565b6000611d51826119a3565b9150611d5c836119a3565b9250828203905081811115611d7457611d73611ce3565b5b92915050565b6000611d85826119a3565b9150611d90836119a3565b9250828202611d9e816119a3565b91508282048414831517611db557611db4611ce3565b5b5092915050565b7f4e487b7100000000000000000000000000000000000000000000000000000000600052601260045260246000fd5b6000611df6826119a3565b9150611e01836119a3565b925082611e1157611e10611dbc565b5b828204905092915050565b7f5a65726f20726573657276657300000000000000000000000000000000000000600082015250565b6000611e52600d83611ba1565b9150611e5d82611e1c565b602082019050919050565b60006020820190508181036000830152611e8181611e45565b9050919050565b7f496e76616c696420616d6f756e74000000000000000000000000000000000000600082015250565b6000611ebe600e83611ba1565b9150611ec982611e88565b602082019050919050565b60006020820190508181036000830152611eed81611eb1565b9050919050565b6000606082019050611f096000830186611a06565b611f166020830185611a06565b611f236040830184611a06565b949350505050565b7f5a65726f20616d6f756e74730000000000000000000000000000000000000000600082015250565b6000611f61600c83611ba1565b9150611f6c82611f2b565b602082019050919050565b60006020820190508181036000830152611f9081611f54565b9050919050565b7f496e73756666696369656e74206c697175696469747900000000000000000000600082015250565b6000611fcd601683611ba1565b9150611fd882611f97565b602082019050919050565b60006020820190508181036000830152611ffc81611fc0565b9050919050565b7f5265656e7472616e637947756172643a207265656e7472616e742063616c6c00600082015250565b6000612039601f83611ba1565b915061204482612003565b602082019050919050565b600060208201905081810360008301526120688161202c565b905091905056fea2646970667358221220f867a496f471471c34eade5dcb8d677528013b37724cf125384591588c3d769664736f6c63430008130033","opcodes":"PUSH1 0x80 PUSH1 0x40 MSTORE CALLVALUE DUP1 ISZERO PUSH3 0x11 JUMPI PUSH1 0x0 DUP1 REVERT JUMPDEST POP PUSH1 0x40 MLOAD PUSH3 0x2286 CODESIZE SUB DUP1 PUSH3 0x2286 DUP4 CODECOPY DUP2 DUP2 ADD PUSH1 0x40 MSTORE DUP2 ADD SWAP1 PUSH3 0x37 SWAP2 SWAP1 PUSH3 0x18A JUMP JUMPDEST PUSH1 0x1 PUSH1 0x0 DUP2 SWAP1 SSTORE POP PUSH3 0x5B PUSH8 0x65F3C34BC929F374 PUSH1 0xC0 SHL PUSH3 0x11D PUSH1 0x20 SHL PUSH1 0x20 SHR JUMP JUMPDEST PUSH3 0x77 PUSH8 0x2C2F9BDBBAA969B2 PUSH1 0xC0 SHL PUSH3 0x11D PUSH1 0x20 SHL PUSH1 0x20 SHR JUMP JUMPDEST DUP2 PUSH1 0x1 PUSH1 0x0 PUSH2 0x100 EXP DUP2 SLOAD DUP2 PUSH20 0xFFFFFFFFFFFFFFFFFFFFFFFFFFFFFFFFFFFFFFFF MUL NOT AND SWAP1 DUP4 PUSH20 0xFFFFFFFFFFFFFFFFFFFFFFFFFFFFFFFFFFFFFFFF AND MUL OR SWAP1 SSTORE POP PUSH3 0xD4 PUSH8 0xBC2E19C8996C194E PUSH1 0xC0 SHL PUSH3 0x11D PUSH1 0x20 SHL PUSH1 0x20 SHR JUMP JUMPDEST DUP1 PUSH1 0x2 PUSH1 0x0 PUSH2 0x100 EXP DUP2 SLOAD DUP2 PUSH20 0xFFFFFFFFFFFFFFFFFFFFFFFFFFFFFFFFFFFFFFFF MUL NOT AND SWAP1 DUP4 PUSH20 0xFFFFFFFFFFFFFFFFFFFFFFFFFFFFFFFFFFFFFFFF AND MUL OR SWAP1 SSTORE POP POP POP PUSH3 0x1D1 JUMP JUMPDEST POP JUMP JUMPDEST PUSH1 0x0 DUP1 REVERT JUMPDEST PUSH1 0x0 PUSH20 0xFFFFFFFFFFFFFFFFFFFFFFFFFFFFFFFFFFFFFFFF DUP3 AND SWAP1 POP SWAP2 SWAP1 POP JUMP JUMPDEST PUSH1 0x0 PUSH3 0x152 DUP3 PUSH3 0x125 JUMP JUMPDEST SWAP1 POP SWAP2 SWAP1 POP JUMP JUMPDEST PUSH3 0x164 DUP2 PUSH3 0x145 JUMP JUMPDEST DUP2 EQ PUSH3 0x170 JUMPI PUSH1 0x0 DUP1 REVERT JUMPDEST POP JUMP JUMPDEST PUSH1 0x0 DUP2 MLOAD SWAP1 POP PUSH3 0x184 DUP2 PUSH3 0x159 JUMP JUMPDEST SWAP3 SWAP2 POP POP JUMP JUMPDEST PUSH1 0x0 DUP1 PUSH1 0x40 DUP4 DUP6 SUB SLT ISZERO PUSH3 0x1A4 JUMPI PUSH3 0x1A3 PUSH3 0x120 JUMP JUMPDEST JUMPDEST PUSH1 0x0 PUSH3 0x1B4 DUP6 DUP3 DUP7 ADD PUSH3 0x173 JUMP JUMPDEST SWAP3 POP POP PUSH1 0x20 PUSH3 0x1C7 DUP6 DUP3 DUP7 ADD PUSH3 0x173 JUMP JUMPDEST SWAP2 POP POP SWAP3 POP SWAP3 SWAP1 POP JUMP JUMPDEST PUSH2 0x20A5 DUP1 PUSH3 0x1E1 PUSH1 0x0 CODECOPY PUSH1 0x0 RETURN INVALID PUSH1 0x80 PUSH1 0x40 MSTORE CALLVALUE DUP1 ISZERO PUSH2 0x10 JUMPI PUSH1 0x0 DUP1 REVERT JUMPDEST POP PUSH1 0x4 CALLDATASIZE LT PUSH2 0xCF JUMPI PUSH1 0x0 CALLDATALOAD PUSH1 0xE0 SHR DUP1 PUSH4 0x5F64B55B GT PUSH2 0x8C JUMPI DUP1 PUSH4 0x9CD441DA GT PUSH2 0x66 JUMPI DUP1 PUSH4 0x9CD441DA EQ PUSH2 0x21A JUMPI DUP1 PUSH4 0xB8C876B1 EQ PUSH2 0x24A JUMPI DUP1 PUSH4 0xDC5FA6C5 EQ PUSH2 0x27A JUMPI DUP1 PUSH4 0xE619A498 EQ PUSH2 0x298 JUMPI PUSH2 0xCF JUMP JUMPDEST DUP1 PUSH4 0x5F64B55B EQ PUSH2 0x1AD JUMPI DUP1 PUSH4 0x98D5FDCA EQ PUSH2 0x1CB JUMPI DUP1 PUSH4 0x9C8F9F23 EQ PUSH2 0x1E9 JUMPI PUSH2 0xCF JUMP JUMPDEST DUP1 PUSH4 0x3102091 EQ PUSH2 0xD4 JUMPI DUP1 PUSH4 0x54D50D4 EQ PUSH2 0x104 JUMPI DUP1 PUSH4 0x902F1AC EQ PUSH2 0x134 JUMPI DUP1 PUSH4 0xFC63D10 EQ PUSH2 0x153 JUMPI DUP1 PUSH4 0x15770F92 EQ PUSH2 0x171 JUMPI DUP1 PUSH4 0x19E36F3B EQ PUSH2 0x18F JUMPI JUMPDEST PUSH1 0x0 DUP1 REVERT JUMPDEST PUSH2 0xEE PUSH1 0x4 DUP1 CALLDATASIZE SUB DUP2 ADD SWAP1 PUSH2 0xE9 SWAP2 SWAP1 PUSH2 0x19D9 JUMP JUMPDEST PUSH2 0x2C8 JUMP JUMPDEST PUSH1 0x40 MLOAD PUSH2 0xFB SWAP2 SWAP1 PUSH2 0x1A15 JUMP JUMPDEST PUSH1 0x40 MLOAD DUP1 SWAP2 SUB SWAP1 RETURN JUMPDEST PUSH2 0x11E PUSH1 0x4 DUP1 CALLDATASIZE SUB DUP2 ADD SWAP1 PUSH2 0x119 SWAP2 SWAP1 PUSH2 0x1A30 JUMP JUMPDEST PUSH2 0x6AB JUMP JUMPDEST PUSH1 0x40 MLOAD PUSH2 0x12B SWAP2 SWAP1 PUSH2 0x1A15 JUMP JUMPDEST PUSH1 0x40 MLOAD DUP1 SWAP2 SUB SWAP1 RETURN JUMPDEST PUSH2 0x13C PUSH2 0x7B8 JUMP JUMPDEST PUSH1 0x40 MLOAD PUSH2 0x14A SWAP3 SWAP2 SWAP1 PUSH2 0x1A83 JUMP JUMPDEST PUSH1 0x40 MLOAD DUP1 SWAP2 SUB SWAP1 RETURN JUMPDEST PUSH2 0x15B PUSH2 0x805 JUMP JUMPDEST PUSH1 0x40 MLOAD PUSH2 0x168 SWAP2 SWAP1 PUSH2 0x1AED JUMP JUMPDEST PUSH1 0x40 MLOAD DUP1 SWAP2 SUB SWAP1 RETURN JUMPDEST PUSH2 0x179 PUSH2 0x82B JUMP JUMPDEST PUSH1 0x40 MLOAD PUSH2 0x186 SWAP2 SWAP1 PUSH2 0x1A15 JUMP JUMPDEST PUSH1 0x40 MLOAD DUP1 SWAP2 SUB SWAP1 RETURN JUMPDEST PUSH2 0x197 PUSH2 0x831 JUMP JUMPDEST PUSH1 0x40 MLOAD PUSH2 0x1A4 SWAP2 SWAP1 PUSH2 0x1A15 JUMP JUMPDEST PUSH1 0x40 MLOAD DUP1 SWAP2 SUB SWAP1 RETURN JUMPDEST PUSH2 0x1B5 PUSH2 0x837 JUMP JUMPDEST PUSH1 0x40 MLOAD PUSH2 0x1C2 SWAP2 SWAP1 PUSH2 0x1AED JUMP JUMPDEST PUSH1 0x40 MLOAD DUP1 SWAP2 SUB SWAP1 RETURN JUMPDEST PUSH2 0x1D3 PUSH2 0x85D JUMP JUMPDEST PUSH1 0x40 MLOAD PUSH2 0x1E0 SWAP2 SWAP1 PUSH2 0x1A15 JUMP JUMPDEST PUSH1 0x40 MLOAD DUP1 SWAP2 SUB SWAP1 RETURN JUMPDEST PUSH2 0x203 PUSH1 0x4 DUP1 CALLDATASIZE SUB DUP2 ADD SWAP1 PUSH2 0x1FE SWAP2 SWAP1 PUSH2 0x19D9 JUMP JUMPDEST PUSH2 0x958 JUMP JUMPDEST PUSH1 0x40 MLOAD PUSH2 0x211 SWAP3 SWAP2 SWAP1 PUSH2 0x1A83 JUMP JUMPDEST PUSH1 0x40 MLOAD DUP1 SWAP2 SUB SWAP1 RETURN JUMPDEST PUSH2 0x234 PUSH1 0x4 DUP1 CALLDATASIZE SUB DUP2 ADD SWAP1 PUSH2 0x22F SWAP2 SWAP1 PUSH2 0x1B08 JUMP JUMPDEST PUSH2 0xDE9 JUMP JUMPDEST PUSH1 0x40 MLOAD PUSH2 0x241 SWAP2 SWAP1 PUSH2 0x1A15 JUMP JUMPDEST PUSH1 0x40 MLOAD DUP1 SWAP2 SUB SWAP1 RETURN JUMPDEST PUSH2 0x264 PUSH1 0x4 DUP1 CALLDATASIZE SUB DUP2 ADD SWAP1 PUSH2 0x25F SWAP2 SWAP1 PUSH2 0x1B74 JUMP JUMPDEST PUSH2 0x134E JUMP JUMPDEST PUSH1 0x40 MLOAD PUSH2 0x271 SWAP2 SWAP1 PUSH2 0x1A15 JUMP JUMPDEST PUSH1 0x40 MLOAD DUP1 SWAP2 SUB SWAP1 RETURN JUMPDEST PUSH2 0x282 PUSH2 0x1366 JUMP JUMPDEST PUSH1 0x40 MLOAD PUSH2 0x28F SWAP2 SWAP1 PUSH2 0x1A15 JUMP JUMPDEST PUSH1 0x40 MLOAD DUP1 SWAP2 SUB SWAP1 RETURN JUMPDEST PUSH2 0x2B2 PUSH1 0x4 DUP1 CALLDATASIZE SUB DUP2 ADD SWAP1 PUSH2 0x2AD SWAP2 SWAP1 PUSH2 0x19D9 JUMP JUMPDEST PUSH2 0x136C JUMP JUMPDEST PUSH1 0x40 MLOAD PUSH2 0x2BF SWAP2 SWAP1 PUSH2 0x1A15 JUMP JUMPDEST PUSH1 0x40 MLOAD DUP1 SWAP2 SUB SWAP1 RETURN JUMPDEST PUSH1 0x0 PUSH2 0x2DE PUSH8 0xA321C0E9929A47D8 PUSH1 0xC0 SHL PUSH2 0x174F JUMP JUMPDEST PUSH2 0x2E6 PUSH2 0x1752 JUMP JUMPDEST PUSH2 0x2FA PUSH8 0x2BBD8ABF52C59FE3 PUSH1 0xC0 SHL PUSH2 0x174F JUMP JUMPDEST PUSH2 0x30E PUSH8 0x9591558F67C9C1CE PUSH1 0xC0 SHL PUSH2 0x174F JUMP JUMPDEST PUSH2 0x322 PUSH8 0x4DACC0388B1E1EA5 PUSH1 0xC0 SHL PUSH2 0x174F JUMP JUMPDEST PUSH2 0x336 PUSH8 0xBF8D978F82225BF5 PUSH1 0xC0 SHL PUSH2 0x174F JUMP JUMPDEST PUSH2 0x34A PUSH8 0x41D7D696264C9350 PUSH1 0xC0 SHL PUSH2 0x174F JUMP JUMPDEST PUSH1 0x0 DUP3 GT PUSH2 0x38D JUMPI PUSH1 0x40 MLOAD PUSH32 0x8C379A000000000000000000000000000000000000000000000000000000000 DUP2 MSTORE PUSH1 0x4 ADD PUSH2 0x384 SWAP1 PUSH2 0x1BFE JUMP JUMPDEST PUSH1 0x40 MLOAD DUP1 SWAP2 SUB SWAP1 REVERT JUMPDEST PUSH2 0x3A1 PUSH8 0x20884661B6EA7126 PUSH1 0xC0 SHL PUSH2 0x174F JUMP JUMPDEST PUSH2 0x3B5 PUSH8 0xE932015703660A45 PUSH1 0xC0 SHL PUSH2 0x174F JUMP JUMPDEST PUSH2 0x3C4 DUP3 PUSH1 0x3 SLOAD PUSH1 0x4 SLOAD PUSH2 0x6AB JUMP JUMPDEST SWAP1 POP PUSH2 0x3DA PUSH8 0x3DD1EB2ADC9FBBB3 PUSH1 0xC0 SHL PUSH2 0x174F JUMP JUMPDEST PUSH2 0x3EE PUSH8 0xD7E1C77E6C53316 PUSH1 0xC0 SHL PUSH2 0x174F JUMP JUMPDEST PUSH1 0x1 PUSH1 0x0 SWAP1 SLOAD SWAP1 PUSH2 0x100 EXP SWAP1 DIV PUSH20 0xFFFFFFFFFFFFFFFFFFFFFFFFFFFFFFFFFFFFFFFF AND PUSH20 0xFFFFFFFFFFFFFFFFFFFFFFFFFFFFFFFFFFFFFFFF AND PUSH4 0x23B872DD CALLER ADDRESS DUP6 PUSH1 0x40 MLOAD DUP5 PUSH4 0xFFFFFFFF AND PUSH1 0xE0 SHL DUP2 MSTORE PUSH1 0x4 ADD PUSH2 0x44D SWAP4 SWAP3 SWAP2 SWAP1 PUSH2 0x1C1E JUMP JUMPDEST PUSH1 0x20 PUSH1 0x40 MLOAD DUP1 DUP4 SUB DUP2 PUSH1 0x0 DUP8 GAS CALL ISZERO DUP1 ISZERO PUSH2 0x46C JUMPI RETURNDATASIZE PUSH1 0x0 DUP1 RETURNDATACOPY RETURNDATASIZE PUSH1 0x0 REVERT JUMPDEST POP POP POP POP PUSH1 0x40 MLOAD RETURNDATASIZE PUSH1 0x1F NOT PUSH1 0x1F DUP3 ADD AND DUP3 ADD DUP1 PUSH1 0x40 MSTORE POP DUP2 ADD SWAP1 PUSH2 0x490 SWAP2 SWAP1 PUSH2 0x1C8D JUMP JUMPDEST POP PUSH2 0x4A5 PUSH8 0x2A7303977011DCCD PUSH1 0xC0 SHL PUSH2 0x174F JUMP JUMPDEST PUSH2 0x4B9 PUSH8 0x4ECFD303A1C2CD6D PUSH1 0xC0 SHL PUSH2 0x174F JUMP JUMPDEST PUSH1 0x2 PUSH1 0x0 SWAP1 SLOAD SWAP1 PUSH2 0x100 EXP SWAP1 DIV PUSH20 0xFFFFFFFFFFFFFFFFFFFFFFFFFFFFFFFFFFFFFFFF AND PUSH20 0xFFFFFFFFFFFFFFFFFFFFFFFFFFFFFFFFFFFFFFFF AND PUSH4 0xA9059CBB CALLER DUP4 PUSH1 0x40 MLOAD DUP4 PUSH4 0xFFFFFFFF AND PUSH1 0xE0 SHL DUP2 MSTORE PUSH1 0x4 ADD PUSH2 0x516 SWAP3 SWAP2 SWAP1 PUSH2 0x1CBA JUMP JUMPDEST PUSH1 0x20 PUSH1 0x40 MLOAD DUP1 DUP4 SUB DUP2 PUSH1 0x0 DUP8 GAS CALL ISZERO DUP1 ISZERO PUSH2 0x535 JUMPI RETURNDATASIZE PUSH1 0x0 DUP1 RETURNDATACOPY RETURNDATASIZE PUSH1 0x0 REVERT JUMPDEST POP POP POP POP PUSH1 0x40 MLOAD RETURNDATASIZE PUSH1 0x1F NOT PUSH1 0x1F DUP3 ADD AND DUP3 ADD DUP1 PUSH1 0x40 MSTORE POP DUP2 ADD SWAP1 PUSH2 0x559 SWAP2 SWAP1 PUSH2 0x1C8D JUMP JUMPDEST POP PUSH2 0x56E PUSH8 0x16CB4F8705BD3276 PUSH1 0xC0 SHL PUSH2 0x174F JUMP JUMPDEST DUP2 PUSH1 0x3 PUSH1 0x0 DUP3 DUP3 SLOAD PUSH2 0x580 SWAP2 SWAP1 PUSH2 0x1D12 JUMP JUMPDEST SWAP3 POP POP DUP2 SWAP1 SSTORE POP PUSH2 0x59B PUSH8 0xF7E74A2F9772DAC6 PUSH1 0xC0 SHL PUSH2 0x174F JUMP JUMPDEST DUP1 PUSH1 0x4 PUSH1 0x0 DUP3 DUP3 SLOAD PUSH2 0x5AD SWAP2 SWAP1 PUSH2 0x1D46 JUMP JUMPDEST SWAP3 POP POP DUP2 SWAP1 SSTORE POP PUSH2 0x5C8 PUSH8 0xB62C34483019DD4E PUSH1 0xC0 SHL PUSH2 0x174F JUMP JUMPDEST PUSH2 0x5DC PUSH8 0xE6B0DAF72D9EFCBE PUSH1 0xC0 SHL PUSH2 0x174F JUMP JUMPDEST PUSH1 0x2 PUSH1 0x0 SWAP1 SLOAD SWAP1 PUSH2 0x100 EXP SWAP1 DIV PUSH20 0xFFFFFFFFFFFFFFFFFFFFFFFFFFFFFFFFFFFFFFFF AND PUSH20 0xFFFFFFFFFFFFFFFFFFFFFFFFFFFFFFFFFFFFFFFF AND PUSH1 0x1 PUSH1 0x0 SWAP1 SLOAD SWAP1 PUSH2 0x100 EXP SWAP1 DIV PUSH20 0xFFFFFFFFFFFFFFFFFFFFFFFFFFFFFFFFFFFFFFFF AND PUSH20 0xFFFFFFFFFFFFFFFFFFFFFFFFFFFFFFFFFFFFFFFF AND CALLER PUSH20 0xFFFFFFFFFFFFFFFFFFFFFFFFFFFFFFFFFFFFFFFF AND PUSH32 0xCD3829A3813DC3CDD188FD3D01DCF3268C16BE2FDD2DD21D0665418816E46062 DUP6 DUP6 PUSH1 0x40 MLOAD PUSH2 0x696 SWAP3 SWAP2 SWAP1 PUSH2 0x1A83 JUMP JUMPDEST PUSH1 0x40 MLOAD DUP1 SWAP2 SUB SWAP1 LOG4 PUSH2 0x6A6 PUSH2 0x17A1 JUMP JUMPDEST SWAP2 SWAP1 POP JUMP JUMPDEST PUSH1 0x0 PUSH2 0x6C1 PUSH8 0x6953CE5ECE2E5291 PUSH1 0xC0 SHL PUSH2 0x174F JUMP JUMPDEST PUSH2 0x6D5 PUSH8 0x473F4B8511857887 PUSH1 0xC0 SHL PUSH2 0x174F JUMP JUMPDEST PUSH2 0x6E9 PUSH8 0x15DE1FE9213E8DDF PUSH1 0xC0 SHL PUSH2 0x174F JUMP JUMPDEST PUSH1 0x0 PUSH2 0x3E5 DUP6 PUSH2 0x6F9 SWAP2 SWAP1 PUSH2 0x1D7A JUMP JUMPDEST SWAP1 POP PUSH2 0x70F PUSH8 0xB54AC4C186B9EA14 PUSH1 0xC0 SHL PUSH2 0x174F JUMP JUMPDEST PUSH2 0x723 PUSH8 0x33F133191CCB07B4 PUSH1 0xC0 SHL PUSH2 0x174F JUMP JUMPDEST PUSH1 0x0 DUP4 DUP3 PUSH2 0x731 SWAP2 SWAP1 PUSH2 0x1D7A JUMP JUMPDEST SWAP1 POP PUSH2 0x747 PUSH8 0xF888C0FE2F7F5E59 PUSH1 0xC0 SHL PUSH2 0x174F JUMP JUMPDEST PUSH2 0x75B PUSH8 0x3D2ABD1CCF1986C4 PUSH1 0xC0 SHL PUSH2 0x174F JUMP JUMPDEST PUSH1 0x0 DUP3 PUSH2 0x3E8 DUP8 PUSH2 0x76C SWAP2 SWAP1 PUSH2 0x1D7A JUMP JUMPDEST PUSH2 0x776 SWAP2 SWAP1 PUSH2 0x1D12 JUMP JUMPDEST SWAP1 POP PUSH2 0x78C PUSH8 0x43FD2B5323871DC3 PUSH1 0xC0 SHL PUSH2 0x174F JUMP JUMPDEST PUSH2 0x7A0 PUSH8 0x3A7DFA93C595991E PUSH1 0xC0 SHL PUSH2 0x174F JUMP JUMPDEST DUP1 DUP3 PUSH2 0x7AC SWAP2 SWAP1 PUSH2 0x1DEB JUMP JUMPDEST SWAP4 POP POP POP POP SWAP4 SWAP3 POP POP POP JUMP JUMPDEST PUSH1 0x0 DUP1 PUSH2 0x7CF PUSH8 0x9AC77516BA02C80D PUSH1 0xC0 SHL PUSH2 0x174F JUMP JUMPDEST PUSH2 0x7E3 PUSH8 0x24F177A0D9324181 PUSH1 0xC0 SHL PUSH2 0x174F JUMP JUMPDEST PUSH2 0x7F7 PUSH8 0x318EF88D0FDA68E4 PUSH1 0xC0 SHL PUSH2 0x174F JUMP JUMPDEST PUSH1 0x3 SLOAD PUSH1 0x4 SLOAD SWAP2 POP SWAP2 POP SWAP1 SWAP2 JUMP JUMPDEST PUSH1 0x1 PUSH1 0x0 SWAP1 SLOAD SWAP1 PUSH2 0x100 EXP SWAP1 DIV PUSH20 0xFFFFFFFFFFFFFFFFFFFFFFFFFFFFFFFFFFFFFFFF AND DUP2 JUMP JUMPDEST PUSH1 0x5 SLOAD DUP2 JUMP JUMPDEST PUSH1 0x4 SLOAD DUP2 JUMP JUMPDEST PUSH1 0x2 PUSH1 0x0 SWAP1 SLOAD SWAP1 PUSH2 0x100 EXP SWAP1 DIV PUSH20 0xFFFFFFFFFFFFFFFFFFFFFFFFFFFFFFFFFFFFFFFF AND DUP2 JUMP JUMPDEST PUSH1 0x0 PUSH2 0x873 PUSH8 0xE539C347F7717DA2 PUSH1 0xC0 SHL PUSH2 0x174F JUMP JUMPDEST PUSH2 0x887 PUSH8 0x2001518010C5324 PUSH1 0xC0 SHL PUSH2 0x174F JUMP JUMPDEST PUSH2 0x89B PUSH8 0x3E68AEFE9335F90F PUSH1 0xC0 SHL PUSH2 0x174F JUMP JUMPDEST PUSH2 0x8AF PUSH8 0xE2FBC817C5717366 PUSH1 0xC0 SHL PUSH2 0x174F JUMP JUMPDEST PUSH1 0x0 PUSH1 0x3 SLOAD GT PUSH2 0x8F4 JUMPI PUSH1 0x40 MLOAD PUSH32 0x8C379A000000000000000000000000000000000000000000000000000000000 DUP2 MSTORE PUSH1 0x4 ADD PUSH2 0x8EB SWAP1 PUSH2 0x1E68 JUMP JUMPDEST PUSH1 0x40 MLOAD DUP1 SWAP2 SUB SWAP1 REVERT JUMPDEST PUSH2 0x908 PUSH8 0xA93E88E6C60EB15A PUSH1 0xC0 SHL PUSH2 0x174F JUMP JUMPDEST PUSH2 0x91C PUSH8 0x498A917F92B53A1B PUSH1 0xC0 SHL PUSH2 0x174F JUMP JUMPDEST PUSH2 0x930 PUSH8 0xBB13032E9472CDAE PUSH1 0xC0 SHL PUSH2 0x174F JUMP JUMPDEST PUSH1 0x3 SLOAD PUSH8 0xDE0B6B3A7640000 PUSH1 0x4 SLOAD PUSH2 0x949 SWAP2 SWAP1 PUSH2 0x1D7A JUMP JUMPDEST PUSH2 0x953 SWAP2 SWAP1 PUSH2 0x1DEB JUMP JUMPDEST SWAP1 POP SWAP1 JUMP JUMPDEST PUSH1 0x0 DUP1 PUSH2 0x96F PUSH8 0xB6430981A69F850 PUSH1 0xC0 SHL PUSH2 0x174F JUMP JUMPDEST PUSH2 0x977 PUSH2 0x1752 JUMP JUMPDEST PUSH2 0x98B PUSH8 0xB4008791D7F74CE0 PUSH1 0xC0 SHL PUSH2 0x174F JUMP JUMPDEST PUSH2 0x99F PUSH8 0xEE2D05A1C8F2013A PUSH1 0xC0 SHL PUSH2 0x174F JUMP JUMPDEST PUSH2 0x9B3 PUSH8 0x5193C37A7E7E40E6 PUSH1 0xC0 SHL PUSH2 0x174F JUMP JUMPDEST PUSH2 0x9C7 PUSH8 0x88286FB0AD4A105F PUSH1 0xC0 SHL PUSH2 0x174F JUMP JUMPDEST PUSH2 0x9DB PUSH8 0x9881BF915A7173A4 PUSH1 0xC0 SHL PUSH2 0x174F JUMP JUMPDEST PUSH1 0x0 DUP4 GT DUP1 ISZERO PUSH2 0xA2A JUMPI POP DUP3 PUSH1 0x6 PUSH1 0x0 CALLER PUSH20 0xFFFFFFFFFFFFFFFFFFFFFFFFFFFFFFFFFFFFFFFF AND PUSH20 0xFFFFFFFFFFFFFFFFFFFFFFFFFFFFFFFFFFFFFFFF AND DUP2 MSTORE PUSH1 0x20 ADD SWAP1 DUP2 MSTORE PUSH1 0x20 ADD PUSH1 0x0 KECCAK256 SLOAD LT ISZERO JUMPDEST PUSH2 0xA69 JUMPI PUSH1 0x40 MLOAD PUSH32 0x8C379A000000000000000000000000000000000000000000000000000000000 DUP2 MSTORE PUSH1 0x4 ADD PUSH2 0xA60 SWAP1 PUSH2 0x1ED4 JUMP JUMPDEST PUSH1 0x40 MLOAD DUP1 SWAP2 SUB SWAP1 REVERT JUMPDEST PUSH2 0xA7D PUSH8 0xDB710C587E56D97E PUSH1 0xC0 SHL PUSH2 0x174F JUMP JUMPDEST PUSH2 0xA91 PUSH8 0x1753C83299A9A6DF PUSH1 0xC0 SHL PUSH2 0x174F JUMP JUMPDEST PUSH1 0x5 SLOAD PUSH1 0x3 SLOAD DUP5 PUSH2 0xAA2 SWAP2 SWAP1 PUSH2 0x1D7A JUMP JUMPDEST PUSH2 0xAAC SWAP2 SWAP1 PUSH2 0x1DEB JUMP JUMPDEST SWAP2 POP PUSH2 0xAC2 PUSH8 0x25704AAB8C70C436 PUSH1 0xC0 SHL PUSH2 0x174F JUMP JUMPDEST PUSH1 0x5 SLOAD PUSH1 0x4 SLOAD DUP5 PUSH2 0xAD3 SWAP2 SWAP1 PUSH2 0x1D7A JUMP JUMPDEST PUSH2 0xADD SWAP2 SWAP1 PUSH2 0x1DEB JUMP JUMPDEST SWAP1 POP PUSH2 0xAF3 PUSH8 0x4683A4F53C306E6F PUSH1 0xC0 SHL PUSH2 0x174F JUMP JUMPDEST DUP3 PUSH1 0x6 PUSH1 0x0 CALLER PUSH20 0xFFFFFFFFFFFFFFFFFFFFFFFFFFFFFFFFFFFFFFFF AND PUSH20 0xFFFFFFFFFFFFFFFFFFFFFFFFFFFFFFFFFFFFFFFF AND DUP2 MSTORE PUSH1 0x20 ADD SWAP1 DUP2 MSTORE PUSH1 0x20 ADD PUSH1 0x0 KECCAK256 PUSH1 0x0 DUP3 DUP3 SLOAD PUSH2 0xB42 SWAP2 SWAP1 PUSH2 0x1D46 JUMP JUMPDEST SWAP3 POP POP DUP2 SWAP1 SSTORE POP PUSH2 0xB5D PUSH8 0xB2CF6F801C23FC31 PUSH1 0xC0 SHL PUSH2 0x174F JUMP JUMPDEST DUP3 PUSH1 0x5 PUSH1 0x0 DUP3 DUP3 SLOAD PUSH2 0xB6F SWAP2 SWAP1 PUSH2 0x1D46 JUMP JUMPDEST SWAP3 POP POP DUP2 SWAP1 SSTORE POP PUSH2 0xB8A PUSH8 0x3BE31547E835EF2D PUSH1 0xC0 SHL PUSH2 0x174F JUMP JUMPDEST DUP2 PUSH1 0x3 PUSH1 0x0 DUP3 DUP3 SLOAD PUSH2 0xB9C SWAP2 SWAP1 PUSH2 0x1D46 JUMP JUMPDEST SWAP3 POP POP DUP2 SWAP1 SSTORE POP PUSH2 0xBB7 PUSH8 0xF13665CA64FF8A3B PUSH1 0xC0 SHL PUSH2 0x174F JUMP JUMPDEST DUP1 PUSH1 0x4 PUSH1 0x0 DUP3 DUP3 SLOAD PUSH2 0xBC9 SWAP2 SWAP1 PUSH2 0x1D46 JUMP JUMPDEST SWAP3 POP POP DUP2 SWAP1 SSTORE POP PUSH2 0xBE4 PUSH8 0x8CF62A0879B15D5F PUSH1 0xC0 SHL PUSH2 0x174F JUMP JUMPDEST PUSH2 0xBF8 PUSH8 0x8A448951620511AD PUSH1 0xC0 SHL PUSH2 0x174F JUMP JUMPDEST PUSH1 0x1 PUSH1 0x0 SWAP1 SLOAD SWAP1 PUSH2 0x100 EXP SWAP1 DIV PUSH20 0xFFFFFFFFFFFFFFFFFFFFFFFFFFFFFFFFFFFFFFFF AND PUSH20 0xFFFFFFFFFFFFFFFFFFFFFFFFFFFFFFFFFFFFFFFF AND PUSH4 0xA9059CBB CALLER DUP5 PUSH1 0x40 MLOAD DUP4 PUSH4 0xFFFFFFFF AND PUSH1 0xE0 SHL DUP2 MSTORE PUSH1 0x4 ADD PUSH2 0xC55 SWAP3 SWAP2 SWAP1 PUSH2 0x1CBA JUMP JUMPDEST PUSH1 0x20 PUSH1 0x40 MLOAD DUP1 DUP4 SUB DUP2 PUSH1 0x0 DUP8 GAS CALL ISZERO DUP1 ISZERO PUSH2 0xC74 JUMPI RETURNDATASIZE PUSH1 0x0 DUP1 RETURNDATACOPY RETURNDATASIZE PUSH1 0x0 REVERT JUMPDEST POP POP POP POP PUSH1 0x40 MLOAD RETURNDATASIZE PUSH1 0x1F NOT PUSH1 0x1F DUP3 ADD AND DUP3 ADD DUP1 PUSH1 0x40 MSTORE POP DUP2 ADD SWAP1 PUSH2 0xC98 SWAP2 SWAP1 PUSH2 0x1C8D JUMP JUMPDEST POP PUSH2 0xCAD PUSH8 0x1C26E017C80D866F PUSH1 0xC0 SHL PUSH2 0x174F JUMP JUMPDEST PUSH2 0xCC1 PUSH8 0x76663A1F0E8C615D PUSH1 0xC0 SHL PUSH2 0x174F JUMP JUMPDEST PUSH1 0x2 PUSH1 0x0 SWAP1 SLOAD SWAP1 PUSH2 0x100 EXP SWAP1 DIV PUSH20 0xFFFFFFFFFFFFFFFFFFFFFFFFFFFFFFFFFFFFFFFF AND PUSH20 0xFFFFFFFFFFFFFFFFFFFFFFFFFFFFFFFFFFFFFFFF AND PUSH4 0xA9059CBB CALLER DUP4 PUSH1 0x40 MLOAD DUP4 PUSH4 0xFFFFFFFF AND PUSH1 0xE0 SHL DUP2 MSTORE PUSH1 0x4 ADD PUSH2 0xD1E SWAP3 SWAP2 SWAP1 PUSH2 0x1CBA JUMP JUMPDEST PUSH1 0x20 PUSH1 0x40 MLOAD DUP1 DUP4 SUB DUP2 PUSH1 0x0 DUP8 GAS CALL ISZERO DUP1 ISZERO PUSH2 0xD3D JUMPI RETURNDATASIZE PUSH1 0x0 DUP1 RETURNDATACOPY RETURNDATASIZE PUSH1 0x0 REVERT JUMPDEST POP POP POP POP PUSH1 0x40 MLOAD RETURNDATASIZE PUSH1 0x1F NOT PUSH1 0x1F DUP3 ADD AND DUP3 ADD DUP1 PUSH1 0x40 MSTORE POP DUP2 ADD SWAP1 PUSH2 0xD61 SWAP2 SWAP1 PUSH2 0x1C8D JUMP JUMPDEST POP PUSH2 0xD76 PUSH8 0x55BF4A0CECD23B37 PUSH1 0xC0 SHL PUSH2 0x174F JUMP JUMPDEST PUSH2 0xD8A PUSH8 0xE980F429ACEE7232 PUSH1 0xC0 SHL PUSH2 0x174F JUMP JUMPDEST CALLER PUSH20 0xFFFFFFFFFFFFFFFFFFFFFFFFFFFFFFFFFFFFFFFF AND PUSH32 0x1DC8BB69DF2B8E91FBDCBFCF93D951B3F0000F085A95FE3F7946D6161439245D DUP4 DUP4 DUP7 PUSH1 0x40 MLOAD PUSH2 0xDD4 SWAP4 SWAP3 SWAP2 SWAP1 PUSH2 0x1EF4 JUMP JUMPDEST PUSH1 0x40 MLOAD DUP1 SWAP2 SUB SWAP1 LOG2 PUSH2 0xDE4 PUSH2 0x17A1 JUMP JUMPDEST SWAP2 POP SWAP2 JUMP JUMPDEST PUSH1 0x0 PUSH2 0xDFF PUSH8 0x3BAC63D17D0E129F PUSH1 0xC0 SHL PUSH2 0x174F JUMP JUMPDEST PUSH2 0xE07 PUSH2 0x1752 JUMP JUMPDEST PUSH2 0xE1B PUSH8 0x8045C42E977C0BF2 PUSH1 0xC0 SHL PUSH2 0x174F JUMP JUMPDEST PUSH2 0xE2F PUSH8 0x248134BD83595E21 PUSH1 0xC0 SHL PUSH2 0x174F JUMP JUMPDEST PUSH2 0xE43 PUSH8 0x4A26F908D9A6CD3B PUSH1 0xC0 SHL PUSH2 0x174F JUMP JUMPDEST PUSH2 0xE57 PUSH8 0x9649B6AF7C8AC5FE PUSH1 0xC0 SHL PUSH2 0x174F JUMP JUMPDEST PUSH2 0xE6B PUSH8 0xFFA66B7C1C4479A4 PUSH1 0xC0 SHL PUSH2 0x174F JUMP JUMPDEST PUSH1 0x0 DUP4 GT DUP1 ISZERO PUSH2 0xE7B JUMPI POP PUSH1 0x0 DUP3 GT JUMPDEST PUSH2 0xEBA JUMPI PUSH1 0x40 MLOAD PUSH32 0x8C379A000000000000000000000000000000000000000000000000000000000 DUP2 MSTORE PUSH1 0x4 ADD PUSH2 0xEB1 SWAP1 PUSH2 0x1F77 JUMP JUMPDEST PUSH1 0x40 MLOAD DUP1 SWAP2 SUB SWAP1 REVERT JUMPDEST PUSH2 0xECE PUSH8 0x31E36E4DB5AA0C78 PUSH1 0xC0 SHL PUSH2 0x174F JUMP JUMPDEST PUSH2 0xEE2 PUSH8 0xFE86E7E53B5579AD PUSH1 0xC0 SHL PUSH2 0x174F JUMP JUMPDEST PUSH2 0xEF6 PUSH8 0x86DAE75B47923C33 PUSH1 0xC0 SHL PUSH2 0x174F JUMP JUMPDEST PUSH1 0x0 PUSH1 0x5 SLOAD SUB PUSH2 0xF43 JUMPI PUSH2 0xF14 PUSH8 0x1286726E50DA1CEE PUSH1 0xC0 SHL PUSH2 0x174F JUMP JUMPDEST PUSH2 0xF28 PUSH8 0x1339B100115B4589 PUSH1 0xC0 SHL PUSH2 0x174F JUMP JUMPDEST PUSH2 0xF3C DUP3 DUP5 PUSH2 0xF37 SWAP2 SWAP1 PUSH2 0x1D7A JUMP JUMPDEST PUSH2 0x17AB JUMP JUMPDEST SWAP1 POP PUSH2 0xFAC JUMP JUMPDEST PUSH2 0xF57 PUSH8 0x763B05F9BF22C40B PUSH1 0xC0 SHL PUSH2 0x174F JUMP JUMPDEST PUSH2 0xF6B PUSH8 0x54D2E3AC06034033 PUSH1 0xC0 SHL PUSH2 0x174F JUMP JUMPDEST PUSH2 0xFA9 PUSH1 0x3 SLOAD PUSH1 0x5 SLOAD DUP6 PUSH2 0xF7F SWAP2 SWAP1 PUSH2 0x1D7A JUMP JUMPDEST PUSH2 0xF89 SWAP2 SWAP1 PUSH2 0x1DEB JUMP JUMPDEST PUSH1 0x4 SLOAD PUSH1 0x5 SLOAD DUP6 PUSH2 0xF9A SWAP2 SWAP1 PUSH2 0x1D7A JUMP JUMPDEST PUSH2 0xFA4 SWAP2 SWAP1 PUSH2 0x1DEB JUMP JUMPDEST PUSH2 0x18A4 JUMP JUMPDEST SWAP1 POP JUMPDEST PUSH2 0xFC0 PUSH8 0x9D7B6353AEA62385 PUSH1 0xC0 SHL PUSH2 0x174F JUMP JUMPDEST PUSH2 0xFD4 PUSH8 0xC62A239BBD9B11F3 PUSH1 0xC0 SHL PUSH2 0x174F JUMP JUMPDEST PUSH2 0xFE8 PUSH8 0x8134C601A65EB463 PUSH1 0xC0 SHL PUSH2 0x174F JUMP JUMPDEST PUSH1 0x0 DUP2 GT PUSH2 0x102B JUMPI PUSH1 0x40 MLOAD PUSH32 0x8C379A000000000000000000000000000000000000000000000000000000000 DUP2 MSTORE PUSH1 0x4 ADD PUSH2 0x1022 SWAP1 PUSH2 0x1FE3 JUMP JUMPDEST PUSH1 0x40 MLOAD DUP1 SWAP2 SUB SWAP1 REVERT JUMPDEST PUSH2 0x103F PUSH8 0x3508785B0E6EA6ED PUSH1 0xC0 SHL PUSH2 0x174F JUMP JUMPDEST PUSH2 0x1053 PUSH8 0x72EAAFF1427837F1 PUSH1 0xC0 SHL PUSH2 0x174F JUMP JUMPDEST PUSH2 0x1067 PUSH8 0x1D291ACDB2CFEF35 PUSH1 0xC0 SHL PUSH2 0x174F JUMP JUMPDEST PUSH1 0x1 PUSH1 0x0 SWAP1 SLOAD SWAP1 PUSH2 0x100 EXP SWAP1 DIV PUSH20 0xFFFFFFFFFFFFFFFFFFFFFFFFFFFFFFFFFFFFFFFF AND PUSH20 0xFFFFFFFFFFFFFFFFFFFFFFFFFFFFFFFFFFFFFFFF AND PUSH4 0x23B872DD CALLER ADDRESS DUP7 PUSH1 0x40 MLOAD DUP5 PUSH4 0xFFFFFFFF AND PUSH1 0xE0 SHL DUP2 MSTORE PUSH1 0x4 ADD PUSH2 0x10C6 SWAP4 SWAP3 SWAP2 SWAP1 PUSH2 0x1C1E JUMP JUMPDEST PUSH1 0x20 PUSH1 0x40 MLOAD DUP1 DUP4 SUB DUP2 PUSH1 0x0 DUP8 GAS CALL ISZERO DUP1 ISZERO PUSH2 0x10E5 JUMPI RETURNDATASIZE PUSH1 0x0 DUP1 RETURNDATACOPY RETURNDATASIZE PUSH1 0x0 REVERT JUMPDEST POP POP POP POP PUSH1 0x40 MLOAD RETURNDATASIZE PUSH1 0x1F NOT PUSH1 0x1F DUP3 ADD AND DUP3 ADD DUP1 PUSH1 0x40 MSTORE POP DUP2 ADD SWAP1 PUSH2 0x1109 SWAP2 SWAP1 PUSH2 0x1C8D JUMP JUMPDEST POP PUSH2 0x111E PUSH8 0xEB63B831962214F1 PUSH1 0xC0 SHL PUSH2 0x174F JUMP JUMPDEST PUSH2 0x1132 PUSH8 0x3259271BFA9F1E43 PUSH1 0xC0 SHL PUSH2 0x174F JUMP JUMPDEST PUSH1 0x2 PUSH1 0x0 SWAP1 SLOAD SWAP1 PUSH2 0x100 EXP SWAP1 DIV PUSH20 0xFFFFFFFFFFFFFFFFFFFFFFFFFFFFFFFFFFFFFFFF AND PUSH20 0xFFFFFFFFFFFFFFFFFFFFFFFFFFFFFFFFFFFFFFFF AND PUSH4 0x23B872DD CALLER ADDRESS DUP6 PUSH1 0x40 MLOAD DUP5 PUSH4 0xFFFFFFFF AND PUSH1 0xE0 SHL DUP2 MSTORE PUSH1 0x4 ADD PUSH2 0x1191 SWAP4 SWAP3 SWAP2 SWAP1 PUSH2 0x1C1E JUMP JUMPDEST PUSH1 0x20 PUSH1 0x40 MLOAD DUP1 DUP4 SUB DUP2 PUSH1 0x0 DUP8 GAS CALL ISZERO DUP1 ISZERO PUSH2 0x11B0 JUMPI RETURNDATASIZE PUSH1 0x0 DUP1 RETURNDATACOPY RETURNDATASIZE PUSH1 0x0 REVERT JUMPDEST POP POP POP POP PUSH1 0x40 MLOAD RETURNDATASIZE PUSH1 0x1F NOT PUSH1 0x1F DUP3 ADD AND DUP3 ADD DUP1 PUSH1 0x40 MSTORE POP DUP2 ADD SWAP1 PUSH2 0x11D4 SWAP2 SWAP1 PUSH2 0x1C8D JUMP JUMPDEST POP PUSH2 0x11E9 PUSH8 0x7C2BE90E0A45925D PUSH1 0xC0 SHL PUSH2 0x174F JUMP JUMPDEST DUP3 PUSH1 0x3 PUSH1 0x0 DUP3 DUP3 SLOAD PUSH2 0x11FB SWAP2 SWAP1 PUSH2 0x1D12 JUMP JUMPDEST SWAP3 POP POP DUP2 SWAP1 SSTORE POP PUSH2 0x1216 PUSH8 0xE16BD9760F193291 PUSH1 0xC0 SHL PUSH2 0x174F JUMP JUMPDEST DUP2 PUSH1 0x4 PUSH1 0x0 DUP3 DUP3 SLOAD PUSH2 0x1228 SWAP2 SWAP1 PUSH2 0x1D12 JUMP JUMPDEST SWAP3 POP POP DUP2 SWAP1 SSTORE POP PUSH2 0x1243 PUSH8 0x82B05DDF9792D387 PUSH1 0xC0 SHL PUSH2 0x174F JUMP JUMPDEST DUP1 PUSH1 0x5 PUSH1 0x0 DUP3 DUP3 SLOAD PUSH2 0x1255 SWAP2 SWAP1 PUSH2 0x1D12 JUMP JUMPDEST SWAP3 POP POP DUP2 SWAP1 SSTORE POP PUSH2 0x1270 PUSH8 0x6F4E66778C0431C3 PUSH1 0xC0 SHL PUSH2 0x174F JUMP JUMPDEST DUP1 PUSH1 0x6 PUSH1 0x0 CALLER PUSH20 0xFFFFFFFFFFFFFFFFFFFFFFFFFFFFFFFFFFFFFFFF AND PUSH20 0xFFFFFFFFFFFFFFFFFFFFFFFFFFFFFFFFFFFFFFFF AND DUP2 MSTORE PUSH1 0x20 ADD SWAP1 DUP2 MSTORE PUSH1 0x20 ADD PUSH1 0x0 KECCAK256 PUSH1 0x0 DUP3 DUP3 SLOAD PUSH2 0x12BF SWAP2 SWAP1 PUSH2 0x1D12 JUMP JUMPDEST SWAP3 POP POP DUP2 SWAP1 SSTORE POP PUSH2 0x12DA PUSH8 0x677BBC573AC24147 PUSH1 0xC0 SHL PUSH2 0x174F JUMP JUMPDEST PUSH2 0x12EE PUSH8 0x2837BEFD77F9AC75 PUSH1 0xC0 SHL PUSH2 0x174F JUMP JUMPDEST CALLER PUSH20 0xFFFFFFFFFFFFFFFFFFFFFFFFFFFFFFFFFFFFFFFF AND PUSH32 0x64B83944E79C3CE8D4C297411DE637C3E102D064677AAC0C163976EBDCD6F50E DUP5 DUP5 DUP5 PUSH1 0x40 MLOAD PUSH2 0x1338 SWAP4 SWAP3 SWAP2 SWAP1 PUSH2 0x1EF4 JUMP JUMPDEST PUSH1 0x40 MLOAD DUP1 SWAP2 SUB SWAP1 LOG2 PUSH2 0x1348 PUSH2 0x17A1 JUMP JUMPDEST SWAP3 SWAP2 POP POP JUMP JUMPDEST PUSH1 0x6 PUSH1 0x20 MSTORE DUP1 PUSH1 0x0 MSTORE PUSH1 0x40 PUSH1 0x0 KECCAK256 PUSH1 0x0 SWAP2 POP SWAP1 POP SLOAD DUP2 JUMP JUMPDEST PUSH1 0x3 SLOAD DUP2 JUMP JUMPDEST PUSH1 0x0 PUSH2 0x1382 PUSH8 0xB06B65D72A63F0B PUSH1 0xC0 SHL PUSH2 0x174F JUMP JUMPDEST PUSH2 0x138A PUSH2 0x1752 JUMP JUMPDEST PUSH2 0x139E PUSH8 0xBBA9AC3AEE2927F3 PUSH1 0xC0 SHL PUSH2 0x174F JUMP JUMPDEST PUSH2 0x13B2 PUSH8 0x3B3953B286CE954 PUSH1 0xC0 SHL PUSH2 0x174F JUMP JUMPDEST PUSH2 0x13C6 PUSH8 0x68118778050164E2 PUSH1 0xC0 SHL PUSH2 0x174F JUMP JUMPDEST PUSH2 0x13DA PUSH8 0x44202DCE80BBAA1C PUSH1 0xC0 SHL PUSH2 0x174F JUMP JUMPDEST PUSH2 0x13EE PUSH8 0x4B9C9DD677B11261 PUSH1 0xC0 SHL PUSH2 0x174F JUMP JUMPDEST PUSH1 0x0 DUP3 GT PUSH2 0x1431 JUMPI PUSH1 0x40 MLOAD PUSH32 0x8C379A000000000000000000000000000000000000000000000000000000000 DUP2 MSTORE PUSH1 0x4 ADD PUSH2 0x1428 SWAP1 PUSH2 0x1BFE JUMP JUMPDEST PUSH1 0x40 MLOAD DUP1 SWAP2 SUB SWAP1 REVERT JUMPDEST PUSH2 0x1445 PUSH8 0xD2D8A20188D2C115 PUSH1 0xC0 SHL PUSH2 0x174F JUMP JUMPDEST PUSH2 0x1459 PUSH8 0xDDECBA2C80F8017C PUSH1 0xC0 SHL PUSH2 0x174F JUMP JUMPDEST PUSH2 0x1468 DUP3 PUSH1 0x4 SLOAD PUSH1 0x3 SLOAD PUSH2 0x6AB JUMP JUMPDEST SWAP1 POP PUSH2 0x147E PUSH8 0xA49F49EA9CDD70FF PUSH1 0xC0 SHL PUSH2 0x174F JUMP JUMPDEST PUSH2 0x1492 PUSH8 0xA3B54DD6404CEBE5 PUSH1 0xC0 SHL PUSH2 0x174F JUMP JUMPDEST PUSH1 0x2 PUSH1 0x0 SWAP1 SLOAD SWAP1 PUSH2 0x100 EXP SWAP1 DIV PUSH20 0xFFFFFFFFFFFFFFFFFFFFFFFFFFFFFFFFFFFFFFFF AND PUSH20 0xFFFFFFFFFFFFFFFFFFFFFFFFFFFFFFFFFFFFFFFF AND PUSH4 0x23B872DD CALLER ADDRESS DUP6 PUSH1 0x40 MLOAD DUP5 PUSH4 0xFFFFFFFF AND PUSH1 0xE0 SHL DUP2 MSTORE PUSH1 0x4 ADD PUSH2 0x14F1 SWAP4 SWAP3 SWAP2 SWAP1 PUSH2 0x1C1E JUMP JUMPDEST PUSH1 0x20 PUSH1 0x40 MLOAD DUP1 DUP4 SUB DUP2 PUSH1 0x0 DUP8 GAS CALL ISZERO DUP1 ISZERO PUSH2 0x1510 JUMPI RETURNDATASIZE PUSH1 0x0 DUP1 RETURNDATACOPY RETURNDATASIZE PUSH1 0x0 REVERT JUMPDEST POP POP POP POP PUSH1 0x40 MLOAD RETURNDATASIZE PUSH1 0x1F NOT PUSH1 0x1F DUP3 ADD AND DUP3 ADD DUP1 PUSH1 0x40 MSTORE POP DUP2 ADD SWAP1 PUSH2 0x1534 SWAP2 SWAP1 PUSH2 0x1C8D JUMP JUMPDEST POP PUSH2 0x1549 PUSH8 0xB7097491D7DD527F PUSH1 0xC0 SHL PUSH2 0x174F JUMP JUMPDEST PUSH2 0x155D PUSH8 0x1C1A746D43A0C273 PUSH1 0xC0 SHL PUSH2 0x174F JUMP JUMPDEST PUSH1 0x1 PUSH1 0x0 SWAP1 SLOAD SWAP1 PUSH2 0x100 EXP SWAP1 DIV PUSH20 0xFFFFFFFFFFFFFFFFFFFFFFFFFFFFFFFFFFFFFFFF AND PUSH20 0xFFFFFFFFFFFFFFFFFFFFFFFFFFFFFFFFFFFFFFFF AND PUSH4 0xA9059CBB CALLER DUP4 PUSH1 0x40 MLOAD DUP4 PUSH4 0xFFFFFFFF AND PUSH1 0xE0 SHL DUP2 MSTORE PUSH1 0x4 ADD PUSH2 0x15BA SWAP3 SWAP2 SWAP1 PUSH2 0x1CBA JUMP JUMPDEST PUSH1 0x20 PUSH1 0x40 MLOAD DUP1 DUP4 SUB DUP2 PUSH1 0x0 DUP8 GAS CALL ISZERO DUP1 ISZERO PUSH2 0x15D9 JUMPI RETURNDATASIZE PUSH1 0x0 DUP1 RETURNDATACOPY RETURNDATASIZE PUSH1 0x0 REVERT JUMPDEST POP POP POP POP PUSH1 0x40 MLOAD RETURNDATASIZE PUSH1 0x1F NOT PUSH1 0x1F DUP3 ADD AND DUP3 ADD DUP1 PUSH1 0x40 MSTORE POP DUP2 ADD SWAP1 PUSH2 0x15FD SWAP2 SWAP1 PUSH2 0x1C8D JUMP JUMPDEST POP PUSH2 0x1612 PUSH8 0x8A60E7FE13A663B6 PUSH1 0xC0 SHL PUSH2 0x174F JUMP JUMPDEST DUP2 PUSH1 0x4 PUSH1 0x0 DUP3 DUP3 SLOAD PUSH2 0x1624 SWAP2 SWAP1 PUSH2 0x1D12 JUMP JUMPDEST SWAP3 POP POP DUP2 SWAP1 SSTORE POP PUSH2 0x163F PUSH8 0xAE2471AF1E02F871 PUSH1 0xC0 SHL PUSH2 0x174F JUMP JUMPDEST DUP1 PUSH1 0x3 PUSH1 0x0 DUP3 DUP3 SLOAD PUSH2 0x1651 SWAP2 SWAP1 PUSH2 0x1D46 JUMP JUMPDEST SWAP3 POP POP DUP2 SWAP1 SSTORE POP PUSH2 0x166C PUSH8 0xD7BAB64F774C960A PUSH1 0xC0 SHL PUSH2 0x174F JUMP JUMPDEST PUSH2 0x1680 PUSH8 0x8105DFFC6FF5DE6B PUSH1 0xC0 SHL PUSH2 0x174F JUMP JUMPDEST PUSH1 0x1 PUSH1 0x0 SWAP1 SLOAD SWAP1 PUSH2 0x100 EXP SWAP1 DIV PUSH20 0xFFFFFFFFFFFFFFFFFFFFFFFFFFFFFFFFFFFFFFFF AND PUSH20 0xFFFFFFFFFFFFFFFFFFFFFFFFFFFFFFFFFFFFFFFF AND PUSH1 0x2 PUSH1 0x0 SWAP1 SLOAD SWAP1 PUSH2 0x100 EXP SWAP1 DIV PUSH20 0xFFFFFFFFFFFFFFFFFFFFFFFFFFFFFFFFFFFFFFFF AND PUSH20 0xFFFFFFFFFFFFFFFFFFFFFFFFFFFFFFFFFFFFFFFF AND CALLER PUSH20 0xFFFFFFFFFFFFFFFFFFFFFFFFFFFFFFFFFFFFFFFF AND PUSH32 0xCD3829A3813DC3CDD188FD3D01DCF3268C16BE2FDD2DD21D0665418816E46062 DUP6 DUP6 PUSH1 0x40 MLOAD PUSH2 0x173A SWAP3 SWAP2 SWAP1 PUSH2 0x1A83 JUMP JUMPDEST PUSH1 0x40 MLOAD DUP1 SWAP2 SUB SWAP1 LOG4 PUSH2 0x174A PUSH2 0x17A1 JUMP JUMPDEST SWAP2 SWAP1 POP JUMP JUMPDEST POP JUMP JUMPDEST PUSH1 0x2 PUSH1 0x0 SLOAD SUB PUSH2 0x1797 JUMPI PUSH1 0x40 MLOAD PUSH32 0x8C379A000000000000000000000000000000000000000000000000000000000 DUP2 MSTORE PUSH1 0x4 ADD PUSH2 0x178E SWAP1 PUSH2 0x204F JUMP JUMPDEST PUSH1 0x40 MLOAD DUP1 SWAP2 SUB SWAP1 REVERT JUMPDEST PUSH1 0x2 PUSH1 0x0 DUP2 SWAP1 SSTORE POP JUMP JUMPDEST PUSH1 0x1 PUSH1 0x0 DUP2 SWAP1 SSTORE POP JUMP JUMPDEST PUSH1 0x0 DUP1 DUP3 SUB PUSH2 0x17BD JUMPI PUSH1 0x0 SWAP1 POP PUSH2 0x189F JUMP JUMPDEST PUSH1 0x0 PUSH1 0x1 PUSH2 0x17CA DUP5 PUSH2 0x18BD JUMP JUMPDEST SWAP1 SHR PUSH1 0x1 SWAP1 SHL SWAP1 POP PUSH1 0x1 DUP2 DUP5 DUP2 PUSH2 0x17E4 JUMPI PUSH2 0x17E3 PUSH2 0x1DBC JUMP JUMPDEST JUMPDEST DIV DUP3 ADD SWAP1 SHR SWAP1 POP PUSH1 0x1 DUP2 DUP5 DUP2 PUSH2 0x17FD JUMPI PUSH2 0x17FC PUSH2 0x1DBC JUMP JUMPDEST JUMPDEST DIV DUP3 ADD SWAP1 SHR SWAP1 POP PUSH1 0x1 DUP2 DUP5 DUP2 PUSH2 0x1816 JUMPI PUSH2 0x1815 PUSH2 0x1DBC JUMP JUMPDEST JUMPDEST DIV DUP3 ADD SWAP1 SHR SWAP1 POP PUSH1 0x1 DUP2 DUP5 DUP2 PUSH2 0x182F JUMPI PUSH2 0x182E PUSH2 0x1DBC JUMP JUMPDEST JUMPDEST DIV DUP3 ADD SWAP1 SHR SWAP1 POP PUSH1 0x1 DUP2 DUP5 DUP2 PUSH2 0x1848 JUMPI PUSH2 0x1847 PUSH2 0x1DBC JUMP JUMPDEST JUMPDEST DIV DUP3 ADD SWAP1 SHR SWAP1 POP PUSH1 0x1 DUP2 DUP5 DUP2 PUSH2 0x1861 JUMPI PUSH2 0x1860 PUSH2 0x1DBC JUMP JUMPDEST JUMPDEST DIV DUP3 ADD SWAP1 SHR SWAP1 POP PUSH1 0x1 DUP2 DUP5 DUP2 PUSH2 0x187A JUMPI PUSH2 0x1879 PUSH2 0x1DBC JUMP JUMPDEST JUMPDEST DIV DUP3 ADD SWAP1 SHR SWAP1 POP PUSH2 0x189B DUP2 DUP3 DUP6 DUP2 PUSH2 0x1895 JUMPI PUSH2 0x1894 PUSH2 0x1DBC JUMP JUMPDEST JUMPDEST DIV PUSH2 0x18A4 JUMP JUMPDEST SWAP2 POP POP JUMPDEST SWAP2 SWAP1 POP JUMP JUMPDEST PUSH1 0x0 DUP2 DUP4 LT PUSH2 0x18B3 JUMPI DUP2 PUSH2 0x18B5 JUMP JUMPDEST DUP3 JUMPDEST SWAP1 POP SWAP3 SWAP2 POP POP JUMP JUMPDEST PUSH1 0x0 DUP1 PUSH1 0x0 SWAP1 POP PUSH1 0x0 PUSH1 0x80 DUP5 SWAP1 SHR GT ISZERO PUSH2 0x18DF JUMPI PUSH1 0x80 DUP4 SWAP1 SHR SWAP3 POP PUSH1 0x80 DUP2 ADD SWAP1 POP JUMPDEST PUSH1 0x0 PUSH1 0x40 DUP5 SWAP1 SHR GT ISZERO PUSH2 0x18FA JUMPI PUSH1 0x40 DUP4 SWAP1 SHR SWAP3 POP PUSH1 0x40 DUP2 ADD SWAP1 POP JUMPDEST PUSH1 0x0 PUSH1 0x20 DUP5 SWAP1 SHR GT ISZERO PUSH2 0x1915 JUMPI PUSH1 0x20 DUP4 SWAP1 SHR SWAP3 POP PUSH1 0x20 DUP2 ADD SWAP1 POP JUMPDEST PUSH1 0x0 PUSH1 0x10 DUP5 SWAP1 SHR GT ISZERO PUSH2 0x1930 JUMPI PUSH1 0x10 DUP4 SWAP1 SHR SWAP3 POP PUSH1 0x10 DUP2 ADD SWAP1 POP JUMPDEST PUSH1 0x0 PUSH1 0x8 DUP5 SWAP1 SHR GT ISZERO PUSH2 0x194B JUMPI PUSH1 0x8 DUP4 SWAP1 SHR SWAP3 POP PUSH1 0x8 DUP2 ADD SWAP1 POP JUMPDEST PUSH1 0x0 PUSH1 0x4 DUP5 SWAP1 SHR GT ISZERO PUSH2 0x1966 JUMPI PUSH1 0x4 DUP4 SWAP1 SHR SWAP3 POP PUSH1 0x4 DUP2 ADD SWAP1 POP JUMPDEST PUSH1 0x0 PUSH1 0x2 DUP5 SWAP1 SHR GT ISZERO PUSH2 0x1981 JUMPI PUSH1 0x2 DUP4 SWAP1 SHR SWAP3 POP PUSH1 0x2 DUP2 ADD SWAP1 POP JUMPDEST PUSH1 0x0 PUSH1 0x1 DUP5 SWAP1 SHR GT ISZERO PUSH2 0x1995 JUMPI PUSH1 0x1 DUP2 ADD SWAP1 POP JUMPDEST DUP1 SWAP2 POP POP SWAP2 SWAP1 POP JUMP JUMPDEST PUSH1 0x0 DUP1 REVERT JUMPDEST PUSH1 0x0 DUP2 SWAP1 POP SWAP2 SWAP1 POP JUMP JUMPDEST PUSH2 0x19B6 DUP2 PUSH2 0x19A3 JUMP JUMPDEST DUP2 EQ PUSH2 0x19C1 JUMPI PUSH1 0x0 DUP1 REVERT JUMPDEST POP JUMP JUMPDEST PUSH1 0x0 DUP2 CALLDATALOAD SWAP1 POP PUSH2 0x19D3 DUP2 PUSH2 0x19AD JUMP JUMPDEST SWAP3 SWAP2 POP POP JUMP JUMPDEST PUSH1 0x0 PUSH1 0x20 DUP3 DUP5 SUB SLT ISZERO PUSH2 0x19EF JUMPI PUSH2 0x19EE PUSH2 0x199E JUMP JUMPDEST JUMPDEST PUSH1 0x0 PUSH2 0x19FD DUP5 DUP3 DUP6 ADD PUSH2 0x19C4 JUMP JUMPDEST SWAP2 POP POP SWAP3 SWAP2 POP POP JUMP JUMPDEST PUSH2 0x1A0F DUP2 PUSH2 0x19A3 JUMP JUMPDEST DUP3 MSTORE POP POP JUMP JUMPDEST PUSH1 0x0 PUSH1 0x20 DUP3 ADD SWAP1 POP PUSH2 0x1A2A PUSH1 0x0 DUP4 ADD DUP5 PUSH2 0x1A06 JUMP JUMPDEST SWAP3 SWAP2 POP POP JUMP JUMPDEST PUSH1 0x0 DUP1 PUSH1 0x0 PUSH1 0x60 DUP5 DUP7 SUB SLT ISZERO PUSH2 0x1A49 JUMPI PUSH2 0x1A48 PUSH2 0x199E JUMP JUMPDEST JUMPDEST PUSH1 0x0 PUSH2 0x1A57 DUP7 DUP3 DUP8 ADD PUSH2 0x19C4 JUMP JUMPDEST SWAP4 POP POP PUSH1 0x20 PUSH2 0x1A68 DUP7 DUP3 DUP8 ADD PUSH2 0x19C4 JUMP JUMPDEST SWAP3 POP POP PUSH1 0x40 PUSH2 0x1A79 DUP7 DUP3 DUP8 ADD PUSH2 0x19C4 JUMP JUMPDEST SWAP2 POP POP SWAP3 POP SWAP3 POP SWAP3 JUMP JUMPDEST PUSH1 0x0 PUSH1 0x40 DUP3 ADD SWAP1 POP PUSH2 0x1A98 PUSH1 0x0 DUP4 ADD DUP6 PUSH2 0x1A06 JUMP JUMPDEST PUSH2 0x1AA5 PUSH1 0x20 DUP4 ADD DUP5 PUSH2 0x1A06 JUMP JUMPDEST SWAP4 SWAP3 POP POP POP JUMP JUMPDEST PUSH1 0x0 PUSH20 0xFFFFFFFFFFFFFFFFFFFFFFFFFFFFFFFFFFFFFFFF DUP3 AND SWAP1 POP SWAP2 SWAP1 POP JUMP JUMPDEST PUSH1 0x0 PUSH2 0x1AD7 DUP3 PUSH2 0x1AAC JUMP JUMPDEST SWAP1 POP SWAP2 SWAP1 POP JUMP JUMPDEST PUSH2 0x1AE7 DUP2 PUSH2 0x1ACC JUMP JUMPDEST DUP3 MSTORE POP POP JUMP JUMPDEST PUSH1 0x0 PUSH1 0x20 DUP3 ADD SWAP1 POP PUSH2 0x1B02 PUSH1 0x0 DUP4 ADD DUP5 PUSH2 0x1ADE JUMP JUMPDEST SWAP3 SWAP2 POP POP JUMP JUMPDEST PUSH1 0x0 DUP1 PUSH1 0x40 DUP4 DUP6 SUB SLT ISZERO PUSH2 0x1B1F JUMPI PUSH2 0x1B1E PUSH2 0x199E JUMP JUMPDEST JUMPDEST PUSH1 0x0 PUSH2 0x1B2D DUP6 DUP3 DUP7 ADD PUSH2 0x19C4 JUMP JUMPDEST SWAP3 POP POP PUSH1 0x20 PUSH2 0x1B3E DUP6 DUP3 DUP7 ADD PUSH2 0x19C4 JUMP JUMPDEST SWAP2 POP POP SWAP3 POP SWAP3 SWAP1 POP JUMP JUMPDEST PUSH2 0x1B51 DUP2 PUSH2 0x1ACC JUMP JUMPDEST DUP2 EQ PUSH2 0x1B5C JUMPI PUSH1 0x0 DUP1 REVERT JUMPDEST POP JUMP JUMPDEST PUSH1 0x0 DUP2 CALLDATALOAD SWAP1 POP PUSH2 0x1B6E DUP2 PUSH2 0x1B48 JUMP JUMPDEST SWAP3 SWAP2 POP POP JUMP JUMPDEST PUSH1 0x0 PUSH1 0x20 DUP3 DUP5 SUB SLT ISZERO PUSH2 0x1B8A JUMPI PUSH2 0x1B89 PUSH2 0x199E JUMP JUMPDEST JUMPDEST PUSH1 0x0 PUSH2 0x1B98 DUP5 DUP3 DUP6 ADD PUSH2 0x1B5F JUMP JUMPDEST SWAP2 POP POP SWAP3 SWAP2 POP POP JUMP JUMPDEST PUSH1 0x0 DUP3 DUP3 MSTORE PUSH1 0x20 DUP3 ADD SWAP1 POP SWAP3 SWAP2 POP POP JUMP JUMPDEST PUSH32 0x5A65726F20616D6F756E74000000000000000000000000000000000000000000 PUSH1 0x0 DUP3 ADD MSTORE POP JUMP JUMPDEST PUSH1 0x0 PUSH2 0x1BE8 PUSH1 0xB DUP4 PUSH2 0x1BA1 JUMP JUMPDEST SWAP2 POP PUSH2 0x1BF3 DUP3 PUSH2 0x1BB2 JUMP JUMPDEST PUSH1 0x20 DUP3 ADD SWAP1 POP SWAP2 SWAP1 POP JUMP JUMPDEST PUSH1 0x0 PUSH1 0x20 DUP3 ADD SWAP1 POP DUP2 DUP2 SUB PUSH1 0x0 DUP4 ADD MSTORE PUSH2 0x1C17 DUP2 PUSH2 0x1BDB JUMP JUMPDEST SWAP1 POP SWAP2 SWAP1 POP JUMP JUMPDEST PUSH1 0x0 PUSH1 0x60 DUP3 ADD SWAP1 POP PUSH2 0x1C33 PUSH1 0x0 DUP4 ADD DUP7 PUSH2 0x1ADE JUMP JUMPDEST PUSH2 0x1C40 PUSH1 0x20 DUP4 ADD DUP6 PUSH2 0x1ADE JUMP JUMPDEST PUSH2 0x1C4D PUSH1 0x40 DUP4 ADD DUP5 PUSH2 0x1A06 JUMP JUMPDEST SWAP5 SWAP4 POP POP POP POP JUMP JUMPDEST PUSH1 0x0 DUP2 ISZERO ISZERO SWAP1 POP SWAP2 SWAP1 POP JUMP JUMPDEST PUSH2 0x1C6A DUP2 PUSH2 0x1C55 JUMP JUMPDEST DUP2 EQ PUSH2 0x1C75 JUMPI PUSH1 0x0 DUP1 REVERT JUMPDEST POP JUMP JUMPDEST PUSH1 0x0 DUP2 MLOAD SWAP1 POP PUSH2 0x1C87 DUP2 PUSH2 0x1C61 JUMP JUMPDEST SWAP3 SWAP2 POP POP JUMP JUMPDEST PUSH1 0x0 PUSH1 0x20 DUP3 DUP5 SUB SLT ISZERO PUSH2 0x1CA3 JUMPI PUSH2 0x1CA2 PUSH2 0x199E JUMP JUMPDEST JUMPDEST PUSH1 0x0 PUSH2 0x1CB1 DUP5 DUP3 DUP6 ADD PUSH2 0x1C78 JUMP JUMPDEST SWAP2 POP POP SWAP3 SWAP2 POP POP JUMP JUMPDEST PUSH1 0x0 PUSH1 0x40 DUP3 ADD SWAP1 POP PUSH2 0x1CCF PUSH1 0x0 DUP4 ADD DUP6 PUSH2 0x1ADE JUMP JUMPDEST PUSH2 0x1CDC PUSH1 0x20 DUP4 ADD DUP5 PUSH2 0x1A06 JUMP JUMPDEST SWAP4 SWAP3 POP POP POP JUMP JUMPDEST PUSH32 0x4E487B7100000000000000000000000000000000000000000000000000000000 PUSH1 0x0 MSTORE PUSH1 0x11 PUSH1 0x4 MSTORE PUSH1 0x24 PUSH1 0x0 REVERT JUMPDEST PUSH1 0x0 PUSH2 0x1D1D DUP3 PUSH2 0x19A3 JUMP JUMPDEST SWAP2 POP PUSH2 0x1D28 DUP4 PUSH2 0x19A3 JUMP JUMPDEST SWAP3 POP DUP3 DUP3 ADD SWAP1 POP DUP1 DUP3 GT ISZERO PUSH2 0x1D40 JUMPI PUSH2 0x1D3F PUSH2 0x1CE3 JUMP JUMPDEST JUMPDEST SWAP3 SWAP2 POP POP JUMP JUMPDEST PUSH1 0x0 PUSH2 0x1D51 DUP3 PUSH2 0x19A3 JUMP JUMPDEST SWAP2 POP PUSH2 0x1D5C DUP4 PUSH2 0x19A3 JUMP JUMPDEST SWAP3 POP DUP3 DUP3 SUB SWAP1 POP DUP2 DUP2 GT ISZERO PUSH2 0x1D74 JUMPI PUSH2 0x1D73 PUSH2 0x1CE3 JUMP JUMPDEST JUMPDEST SWAP3 SWAP2 POP POP JUMP JUMPDEST PUSH1 0x0 PUSH2 0x1D85 DUP3 PUSH2 0x19A3 JUMP JUMPDEST SWAP2 POP PUSH2 0x1D90 DUP4 PUSH2 0x19A3 JUMP JUMPDEST SWAP3 POP DUP3 DUP3 MUL PUSH2 0x1D9E DUP2 PUSH2 0x19A3 JUMP JUMPDEST SWAP2 POP DUP3 DUP3 DIV DUP5 EQ DUP4 ISZERO OR PUSH2 0x1DB5 JUMPI PUSH2 0x1DB4 PUSH2 0x1CE3 JUMP JUMPDEST JUMPDEST POP SWAP3 SWAP2 POP POP JUMP JUMPDEST PUSH32 0x4E487B7100000000000000000000000000000000000000000000000000000000 PUSH1 0x0 MSTORE PUSH1 0x12 PUSH1 0x4 MSTORE PUSH1 0x24 PUSH1 0x0 REVERT JUMPDEST PUSH1 0x0 PUSH2 0x1DF6 DUP3 PUSH2 0x19A3 JUMP JUMPDEST SWAP2 POP PUSH2 0x1E01 DUP4 PUSH2 0x19A3 JUMP JUMPDEST SWAP3 POP DUP3 PUSH2 0x1E11 JUMPI PUSH2 0x1E10 PUSH2 0x1DBC JUMP JUMPDEST JUMPDEST DUP3 DUP3 DIV SWAP1 POP SWAP3 SWAP2 POP POP JUMP JUMPDEST PUSH32 0x5A65726F20726573657276657300000000000000000000000000000000000000 PUSH1 0x0 DUP3 ADD MSTORE POP JUMP JUMPDEST PUSH1 0x0 PUSH2 0x1E52 PUSH1 0xD DUP4 PUSH2 0x1BA1 JUMP JUMPDEST SWAP2 POP PUSH2 0x1E5D DUP3 PUSH2 0x1E1C JUMP JUMPDEST PUSH1 0x20 DUP3 ADD SWAP1 POP SWAP2 SWAP1 POP JUMP JUMPDEST PUSH1 0x0 PUSH1 0x20 DUP3 ADD SWAP1 POP DUP2 DUP2 SUB PUSH1 0x0 DUP4 ADD MSTORE PUSH2 0x1E81 DUP2 PUSH2 0x1E45 JUMP JUMPDEST SWAP1 POP SWAP2 SWAP1 POP JUMP JUMPDEST PUSH32 0x496E76616C696420616D6F756E74000000000000000000000000000000000000 PUSH1 0x0 DUP3 ADD MSTORE POP JUMP JUMPDEST PUSH1 0x0 PUSH2 0x1EBE PUSH1 0xE DUP4 PUSH2 0x1BA1 JUMP JUMPDEST SWAP2 POP PUSH2 0x1EC9 DUP3 PUSH2 0x1E88 JUMP JUMPDEST PUSH1 0x20 DUP3 ADD SWAP1 POP SWAP2 SWAP1 POP JUMP JUMPDEST PUSH1 0x0 PUSH1 0x20 DUP3 ADD SWAP1 POP DUP2 DUP2 SUB PUSH1 0x0 DUP4 ADD MSTORE PUSH2 0x1EED DUP2 PUSH2 0x1EB1 JUMP JUMPDEST SWAP1 POP SWAP2 SWAP1 POP JUMP JUMPDEST PUSH1 0x0 PUSH1 0x60 DUP3 ADD SWAP1 POP PUSH2 0x1F09 PUSH1 0x0 DUP4 ADD DUP7 PUSH2 0x1A06 JUMP JUMPDEST PUSH2 0x1F16 PUSH1 0x20 DUP4 ADD DUP6 PUSH2 0x1A06 JUMP JUMPDEST PUSH2 0x1F23 PUSH1 0x40 DUP4 ADD DUP5 PUSH2 0x1A06 JUMP JUMPDEST SWAP5 SWAP4 POP POP POP POP JUMP JUMPDEST PUSH32 0x5A65726F20616D6F756E74730000000000000000000000000000000000000000 PUSH1 0x0 DUP3 ADD MSTORE POP JUMP JUMPDEST PUSH1 0x0 PUSH2 0x1F61 PUSH1 0xC DUP4 PUSH2 0x1BA1 JUMP JUMPDEST SWAP2 POP PUSH2 0x1F6C DUP3 PUSH2 0x1F2B JUMP JUMPDEST PUSH1 0x20 DUP3 ADD SWAP1 POP SWAP2 SWAP1 POP JUMP JUMPDEST PUSH1 0x0 PUSH1 0x20 DUP3 ADD SWAP1 POP DUP2 DUP2 SUB PUSH1 0x0 DUP4 ADD MSTORE PUSH2 0x1F90 DUP2 PUSH2 0x1F54 JUMP JUMPDEST SWAP1 POP SWAP2 SWAP1 POP JUMP JUMPDEST PUSH32 0x496E73756666696369656E74206C697175696469747900000000000000000000 PUSH1 0x0 DUP3 ADD MSTORE POP JUMP JUMPDEST PUSH1 0x0 PUSH2 0x1FCD PUSH1 0x16 DUP4 PUSH2 0x1BA1 JUMP JUMPDEST SWAP2 POP PUSH2 0x1FD8 DUP3 PUSH2 0x1F97 JUMP JUMPDEST PUSH1 0x20 DUP3 ADD SWAP1 POP SWAP2 SWAP1 POP JUMP JUMPDEST PUSH1 0x0 PUSH1 0x20 DUP3 ADD SWAP1 POP DUP2 DUP2 SUB PUSH1 0x0 DUP4 ADD MSTORE PUSH2 0x1FFC DUP2 PUSH2 0x1FC0 JUMP JUMPDEST SWAP1 POP SWAP2 SWAP1 POP JUMP JUMPDEST PUSH32 0x5265656E7472616E637947756172643A207265656E7472616E742063616C6C00 PUSH1 0x0 DUP3 ADD MSTORE POP JUMP JUMPDEST PUSH1 0x0 PUSH2 0x2039 PUSH1 0x1F DUP4 PUSH2 0x1BA1 JUMP JUMPDEST SWAP2 POP PUSH2 0x2044 DUP3 PUSH2 0x2003 JUMP JUMPDEST PUSH1 0x20 DUP3 ADD SWAP1 POP SWAP2 SWAP1 POP JUMP JUMPDEST PUSH1 0x0 PUSH1 0x20 DUP3 ADD SWAP1 POP DUP2 DUP2 SUB PUSH1 0x0 DUP4 ADD MSTORE PUSH2 0x2068 DUP2 PUSH2 0x202C JUMP JUMPDEST SWAP1 POP SWAP2 SWAP1 POP JUMP INVALID LOG2 PUSH5 0x6970667358 0x22 SLT KECCAK256 0xF8 PUSH8 0xA496F471471C34EA 0xDE 0x5D 0xCB DUP14 PUSH8 0x7528013B37724CF1 0x25 CODESIZE GASLIMIT SWAP2 PC DUP13 RETURNDATASIZE PUSH23 0x9664736F6C634300081300330000000000000000000000 "},"methodIdentifiers":{"addLiquidity(uint256,uint256)":"9cd441da","getAmountOut(uint256,uint256,uint256)":"054d50d4","getPrice()":"98d5fdca","getReserves()":"0902f1ac","liquidity(address)":"b8c876b1","removeLiquidity(uint256)":"9c8f9f23","reserveA()":"dc5fa6c5","reserveB()":"19e36f3b","swapAForB(uint256)":"03102091","swapBForA(uint256)":"e619a498","tokenA()":"0fc63d10","tokenB()":"5f64b55b","totalLiquidity()":"15770f92"}}}}}