{
  "_format": "hh-sol-artifact-1",
  "contractName": "DEX",
  "sourceName": "contracts/DEX.sol",
  "abi": [
    {
      "inputs": [
        {
          "internalType": "address",
          "name": "_tokenA",
          "type": "address"
        },
        {
          "internalType": "address",
          "name": "_tokenB",
          "type": "address"
        }
      ],
      "stateMutability": "nonpayable",
      "type": "constructor"
    },
    {
      "anonymous": false,
      "inputs": [
        {
          "indexed": true,
          "internalType": "address",
          "name": "provider",
          "type": "address"
        },
        {
          "indexed": false,
          "internalType": "uint256",
          "name": "amountA",
          "type": "uint256"
        },
        {
          "indexed": false,
          "internalType": "uint256",
          "name": "amountB",
          "type": "uint256"
        },
        {
          "indexed": false,
          "internalType": "uint256",
          "name": "liquidityMinted",
          "type": "uint256"
        }
      ],
      "name": "LiquidityAdded",
      "type": "event"
    },
    {
      "anonymous": false,
      "inputs": [
        {
          "indexed": true,
          "internalType": "address",
          "name": "provider",
          "type": "address"
        },
        {
          "indexed": false,
          "internalType": "uint256",
          "name": "amountA",
          "type": "uint256"
        },
        {
          "indexed": false,
          "internalType": "uint256",
          "name": "amountB",
          "type": "uint256"
        },
        {
          "indexed": false,
          "internalType": "uint256",
          "name": "liquidityBurned",
          "type": "uint256"
        }
      ],
      "name": "LiquidityRemoved",
      "type": "event"
    },
    {
      "anonymous": false,
      "inputs": [
        {
          "indexed": true,
          "internalType": "address",
          "name": "trader",
          "type": "address"
        },
        {
          "indexed": true,
          "internalType": "address",
          "name": "tokenIn",
          "type": "address"
        },
        {
          "indexed": true,
          "internalType": "address",
          "name": "tokenOut",
          "type": "address"
        },
        {
          "indexed": false,
          "internalType": "uint256",
          "name": "amountIn",
          "type": "uint256"
        },
        {
          "indexed": false,
          "internalType": "uint256",
          "name": "amountOut",
          "type": "uint256"
        }
      ],
      "name": "Swap",
      "type": "event"
    },
    {
      "inputs": [
        {
          "internalType": "uint256",
          "name": "amountA",
          "type": "uint256"
        },
        {
          "internalType": "uint256",
          "name": "amountB",
          "type": "uint256"
        }
      ],
      "name": "addLiquidity",
      "outputs": [
        {
          "internalType": "uint256",
          "name": "liquidityMinted",
          "type": "uint256"
        }
      ],
      "stateMutability": "nonpayable",
      "type": "function"
    },
    {
      "inputs": [
        {
          "internalType": "uint256",
          "name": "amountIn",
          "type": "uint256"
        },
        {
          "internalType": "uint256",
          "name": "reserveIn",
          "type": "uint256"
        },
        {
          "internalType": "uint256",
          "name": "reserveOut",
          "type": "uint256"
        }
      ],
      "name": "getAmountOut",
      "outputs": [
        {
          "internalType": "uint256",
          "name": "amountOut",
          "type": "uint256"
        }
      ],
      "stateMutability": "pure",
      "type": "function"
    },
    {
      "inputs": [],
      "name": "getPrice",
      "outputs": [
        {
          "internalType": "uint256",
          "name": "price",
          "type": "uint256"
        }
      ],
      "stateMutability": "view",
      "type": "function"
    },
    {
      "inputs": [],
      "name": "getReserves",
      "outputs": [
        {
          "internalType": "uint256",
          "name": "_reserveA",
          "type": "uint256"
        },
        {
          "internalType": "uint256",
          "name": "_reserveB",
          "type": "uint256"
        }
      ],
      "stateMutability": "view",
      "type": "function"
    },
    {
      "inputs": [
        {
          "internalType": "address",
          "name": "",
          "type": "address"
        }
      ],
      "name": "liquidity",
      "outputs": [
        {
          "internalType": "uint256",
          "name": "",
          "type": "uint256"
        }
      ],
      "stateMutability": "view",
      "type": "function"
    },
    {
      "inputs": [
        {
          "internalType": "uint256",
          "name": "liquidityAmount",
          "type": "uint256"
        }
      ],
      "name": "removeLiquidity",
      "outputs": [
        {
          "internalType": "uint256",
          "name": "amountA",
          "type": "uint256"
        },
        {
          "internalType": "uint256",
          "name": "amountB",
          "type": "uint256"
        }
      ],
      "stateMutability": "nonpayable",
      "type": "function"
    },
    {
      "inputs": [],
      "name": "reserveA",
      "outputs": [
        {
          "internalType": "uint256",
          "name": "",
          "type": "uint256"
        }
      ],
      "stateMutability": "view",
      "type": "function"
    },
    {
      "inputs": [],
      "name": "reserveB",
      "outputs": [
        {
          "internalType": "uint256",
          "name": "",
          "type": "uint256"
        }
      ],
      "stateMutability": "view",
      "type": "function"
    },
    {
      "inputs": [
        {
          "internalType": "uint256",
          "name": "amountAIn",
          "type": "uint256"
        }
      ],
      "name": "swapAForB",
      "outputs": [
        {
          "internalType": "uint256",
          "name": "amountBOut",
          "type": "uint256"
        }
      ],
      "stateMutability": "nonpayable",
      "type": "function"
    },
    {
      "inputs": [
        {
          "internalType": "uint256",
          "name": "amountBIn",
          "type": "uint256"
        }
      ],
      "name": "swapBForA",
      "outputs": [
        {
          "internalType": "uint256",
          "name": "amountAOut",
          "type": "uint256"
        }
      ],
      "stateMutability": "nonpayable",
      "type": "function"
    },
    {
      "inputs": [],
      "name": "tokenA",
      "outputs": [
        {
          "internalType": "address",
          "name": "",
          "type": "address"
        }
      ],
      "stateMutability": "view",
      "type": "function"
    },
    {
      "inputs": [],
      "name": "tokenB",
      "outputs": [
        {
          "internalType": "address",
          "name": "",
          "type": "address"
        }
      ],
      "stateMutability": "view",
      "type": "function"
    },
    {
      "inputs": [],
      "name": "totalLiquidity",
      "outputs": [
        {
          "internalType": "uint256",
          "name": "",
          "type": "uint256"
        }
      ],
      "stateMutability": "view",
      "type": "function"
    }
  ],
  "bytecode": "0x60806040523480156200001157600080fd5b50604051620022863803806200228683398181016040528101906200003791906200018a565b60016000819055506200005b6765f3c34bc929f37460c01b6200011d60201b60201c565b62000077672c2f9bdbbaa969b260c01b6200011d60201b60201c565b81600160006101000a81548173ffffffffffffffffffffffffffffffffffffffff021916908373ffffffffffffffffffffffffffffffffffffffff160217905550620000d467bc2e19c8996c194e60c01b6200011d60201b60201c565b80600260006101000a81548173ffffffffffffffffffffffffffffffffffffffff021916908373ffffffffffffffffffffffffffffffffffffffff1602179055505050620001d1565b50565b600080fd5b600073ffffffffffffffffffffffffffffffffffffffff82169050919050565b6000620001528262000125565b9050919050565b620001648162000145565b81146200017057600080fd5b50565b600081519050620001848162000159565b92915050565b60008060408385031215620001a457620001a362000120565b5b6000620001b48582860162000173565b9250506020620001c78582860162000173565b9150509250929050565b6120a580620001e16000396000f3fe608060405234801561001057600080fd5b50600436106100cf5760003560e01c80635f64b55b1161008c5780639cd441da116100665780639cd441da1461021a578063b8c876b11461024a578063dc5fa6c51461027a578063e619a49814610298576100cf565b80635f64b55b146101ad57806398d5fdca146101cb5780639c8f9f23146101e9576100cf565b806303102091146100d4578063054d50d4146101045780630902f1ac146101345780630fc63d101461015357806315770f921461017157806319e36f3b1461018f575b600080fd5b6100ee60048036038101906100e991906119d9565b6102c8565b6040516100fb9190611a15565b60405180910390f35b61011e60048036038101906101199190611a30565b6106ab565b60405161012b9190611a15565b60405180910390f35b61013c6107b8565b60405161014a929190611a83565b60405180910390f35b61015b610805565b6040516101689190611aed565b60405180910390f35b61017961082b565b6040516101869190611a15565b60405180910390f35b610197610831565b6040516101a49190611a15565b60405180910390f35b6101b5610837565b6040516101c29190611aed565b60405180910390f35b6101d361085d565b6040516101e09190611a15565b60405180910390f35b61020360048036038101906101fe91906119d9565b610958565b604051610211929190611a83565b60405180910390f35b610234600480360381019061022f9190611b08565b610de9565b6040516102419190611a15565b60405180910390f35b610264600480360381019061025f9190611b74565b61134e565b6040516102719190611a15565b60405180910390f35b610282611366565b60405161028f9190611a15565b60405180910390f35b6102b260048036038101906102ad91906119d9565b61136c565b6040516102bf9190611a15565b60405180910390f35b60006102de67a321c0e9929a47d860c01b61174f565b6102e6611752565b6102fa672bbd8abf52c59fe360c01b61174f565b61030e679591558f67c9c1ce60c01b61174f565b610322674dacc0388b1e1ea560c01b61174f565b61033667bf8d978f82225bf560c01b61174f565b61034a6741d7d696264c935060c01b61174f565b6000821161038d576040517f08c379a000000000000000000000000000000000000000000000000000000000815260040161038490611bfe565b60405180910390fd5b6103a16720884661b6ea712660c01b61174f565b6103b567e932015703660a4560c01b61174f565b6103c4826003546004546106ab565b90506103da673dd1eb2adc9fbbb360c01b61174f565b6103ee670d7e1c77e6c5331660c01b61174f565b600160009054906101000a900473ffffffffffffffffffffffffffffffffffffffff1673ffffffffffffffffffffffffffffffffffffffff166323b872dd3330856040518463ffffffff1660e01b815260040161044d93929190611c1e565b6020604051808303816000875af115801561046c573d6000803e3d6000fd5b505050506040513d601f19601f820116820180604052508101906104909190611c8d565b506104a5672a7303977011dccd60c01b61174f565b6104b9674ecfd303a1c2cd6d60c01b61174f565b600260009054906101000a900473ffffffffffffffffffffffffffffffffffffffff1673ffffffffffffffffffffffffffffffffffffffff1663a9059cbb33836040518363ffffffff1660e01b8152600401610516929190611cba565b6020604051808303816000875af1158015610535573d6000803e3d6000fd5b505050506040513d601f19601f820116820180604052508101906105599190611c8d565b5061056e6716cb4f8705bd327660c01b61174f565b81600360008282546105809190611d12565b9250508190555061059b67f7e74a2f9772dac660c01b61174f565b80600460008282546105ad9190611d46565b925050819055506105c867b62c34483019dd4e60c01b61174f565b6105dc67e6b0daf72d9efcbe60c01b61174f565b600260009054906101000a900473ffffffffffffffffffffffffffffffffffffffff1673ffffffffffffffffffffffffffffffffffffffff16600160009054906101000a900473ffffffffffffffffffffffffffffffffffffffff1673ffffffffffffffffffffffffffffffffffffffff163373ffffffffffffffffffffffffffffffffffffffff167fcd3829a3813dc3cdd188fd3d01dcf3268c16be2fdd2dd21d0665418816e460628585604051610696929190611a83565b60405180910390a46106a66117a1565b919050565b60006106c1676953ce5ece2e529160c01b61174f565b6106d567473f4b851185788760c01b61174f565b6106e96715de1fe9213e8ddf60c01b61174f565b60006103e5856106f99190611d7a565b905061070f67b54ac4c186b9ea1460c01b61174f565b6107236733f133191ccb07b460c01b61174f565b600083826107319190611d7a565b905061074767f888c0fe2f7f5e5960c01b61174f565b61075b673d2abd1ccf1986c460c01b61174f565b6000826103e88761076c9190611d7a565b6107769190611d12565b905061078c6743fd2b5323871dc360c01b61174f565b6107a0673a7dfa93c595991e60c01b61174f565b80826107ac9190611deb565b93505050509392505050565b6000806107cf679ac77516ba02c80d60c01b61174f565b6107e36724f177a0d932418160c01b61174f565b6107f767318ef88d0fda68e460c01b61174f565b600354600454915091509091565b600160009054906101000a900473ffffffffffffffffffffffffffffffffffffffff1681565b60055481565b60045481565b600260009054906101000a900473ffffffffffffffffffffffffffffffffffffffff1681565b600061087367e539c347f7717da260c01b61174f565b6108876702001518010c532460c01b61174f565b61089b673e68aefe9335f90f60c01b61174f565b6108af67e2fbc817c571736660c01b61174f565b6000600354116108f4576040517f08c379a00000000000000000000000000000000000000000000000000000000081526004016108eb90611e68565b60405180910390fd5b61090867a93e88e6c60eb15a60c01b61174f565b61091c67498a917f92b53a1b60c01b61174f565b61093067bb13032e9472cdae60c01b61174f565b600354670de0b6b3a76400006004546109499190611d7a565b6109539190611deb565b905090565b60008061096f670b6430981a69f85060c01b61174f565b610977611752565b61098b67b4008791d7f74ce060c01b61174f565b61099f67ee2d05a1c8f2013a60c01b61174f565b6109b3675193c37a7e7e40e660c01b61174f565b6109c76788286fb0ad4a105f60c01b61174f565b6109db679881bf915a7173a460c01b61174f565b600083118015610a2a575082600660003373ffffffffffffffffffffffffffffffffffffffff1673ffffffffffffffffffffffffffffffffffffffff1681526020019081526020016000205410155b610a69576040517f08c379a0000000000000000000000000000000000000000000000000000000008152600401610a6090611ed4565b60405180910390fd5b610a7d67db710c587e56d97e60c01b61174f565b610a91671753c83299a9a6df60c01b61174f565b60055460035484610aa29190611d7a565b610aac9190611deb565b9150610ac26725704aab8c70c43660c01b61174f565b60055460045484610ad39190611d7a565b610add9190611deb565b9050610af3674683a4f53c306e6f60c01b61174f565b82600660003373ffffffffffffffffffffffffffffffffffffffff1673ffffffffffffffffffffffffffffffffffffffff1681526020019081526020016000206000828254610b429190611d46565b92505081905550610b5d67b2cf6f801c23fc3160c01b61174f565b8260056000828254610b6f9190611d46565b92505081905550610b8a673be31547e835ef2d60c01b61174f565b8160036000828254610b9c9190611d46565b92505081905550610bb767f13665ca64ff8a3b60c01b61174f565b8060046000828254610bc99190611d46565b92505081905550610be4678cf62a0879b15d5f60c01b61174f565b610bf8678a448951620511ad60c01b61174f565b600160009054906101000a900473ffffffffffffffffffffffffffffffffffffffff1673ffffffffffffffffffffffffffffffffffffffff1663a9059cbb33846040518363ffffffff1660e01b8152600401610c55929190611cba565b6020604051808303816000875af1158015610c74573d6000803e3d6000fd5b505050506040513d601f19601f82011682018060405250810190610c989190611c8d565b50610cad671c26e017c80d866f60c01b61174f565b610cc16776663a1f0e8c615d60c01b61174f565b600260009054906101000a900473ffffffffffffffffffffffffffffffffffffffff1673ffffffffffffffffffffffffffffffffffffffff1663a9059cbb33836040518363ffffffff1660e01b8152600401610d1e929190611cba565b6020604051808303816000875af1158015610d3d573d6000803e3d6000fd5b505050506040513d601f19601f82011682018060405250810190610d619190611c8d565b50610d766755bf4a0cecd23b3760c01b61174f565b610d8a67e980f429acee723260c01b61174f565b3373ffffffffffffffffffffffffffffffffffffffff167f1dc8bb69df2b8e91fbdcbfcf93d951b3f0000f085a95fe3f7946d6161439245d838386604051610dd493929190611ef4565b60405180910390a2610de46117a1565b915091565b6000610dff673bac63d17d0e129f60c01b61174f565b610e07611752565b610e1b678045c42e977c0bf260c01b61174f565b610e2f67248134bd83595e2160c01b61174f565b610e43674a26f908d9a6cd3b60c01b61174f565b610e57679649b6af7c8ac5fe60c01b61174f565b610e6b67ffa66b7c1c4479a460c01b61174f565b600083118015610e7b5750600082115b610eba576040517f08c379a0000000000000000000000000000000000000000000000000000000008152600401610eb190611f77565b60405180910390fd5b610ece6731e36e4db5aa0c7860c01b61174f565b610ee267fe86e7e53b5579ad60c01b61174f565b610ef66786dae75b47923c3360c01b61174f565b600060055403610f4357610f14671286726e50da1cee60c01b61174f565b610f28671339b100115b458960c01b61174f565b610f3c8284610f379190611d7a565b6117ab565b9050610fac565b610f5767763b05f9bf22c40b60c01b61174f565b610f6b6754d2e3ac0603403360c01b61174f565b610fa960035460055485610f7f9190611d7a565b610f899190611deb565b60045460055485610f9a9190611d7a565b610fa49190611deb565b6118a4565b90505b610fc0679d7b6353aea6238560c01b61174f565b610fd467c62a239bbd9b11f360c01b61174f565b610fe8678134c601a65eb46360c01b61174f565b6000811161102b576040517f08c379a000000000000000000000000000000000000000000000000000000000815260040161102290611fe3565b60405180910390fd5b61103f673508785b0e6ea6ed60c01b61174f565b6110536772eaaff1427837f160c01b61174f565b611067671d291acdb2cfef3560c01b61174f565b600160009054906101000a900473ffffffffffffffffffffffffffffffffffffffff1673ffffffffffffffffffffffffffffffffffffffff166323b872dd3330866040518463ffffffff1660e01b81526004016110c693929190611c1e565b6020604051808303816000875af11580156110e5573d6000803e3d6000fd5b505050506040513d601f19601f820116820180604052508101906111099190611c8d565b5061111e67eb63b831962214f160c01b61174f565b611132673259271bfa9f1e4360c01b61174f565b600260009054906101000a900473ffffffffffffffffffffffffffffffffffffffff1673ffffffffffffffffffffffffffffffffffffffff166323b872dd3330856040518463ffffffff1660e01b815260040161119193929190611c1e565b6020604051808303816000875af11580156111b0573d6000803e3d6000fd5b505050506040513d601f19601f820116820180604052508101906111d49190611c8d565b506111e9677c2be90e0a45925d60c01b61174f565b82600360008282546111fb9190611d12565b9250508190555061121667e16bd9760f19329160c01b61174f565b81600460008282546112289190611d12565b925050819055506112436782b05ddf9792d38760c01b61174f565b80600560008282546112559190611d12565b92505081905550611270676f4e66778c0431c360c01b61174f565b80600660003373ffffffffffffffffffffffffffffffffffffffff1673ffffffffffffffffffffffffffffffffffffffff16815260200190815260200160002060008282546112bf9190611d12565b925050819055506112da67677bbc573ac2414760c01b61174f565b6112ee672837befd77f9ac7560c01b61174f565b3373ffffffffffffffffffffffffffffffffffffffff167f64b83944e79c3ce8d4c297411de637c3e102d064677aac0c163976ebdcd6f50e84848460405161133893929190611ef4565b60405180910390a26113486117a1565b92915050565b60066020528060005260406000206000915090505481565b60035481565b6000611382670b06b65d72a63f0b60c01b61174f565b61138a611752565b61139e67bba9ac3aee2927f360c01b61174f565b6113b26703b3953b286ce95460c01b61174f565b6113c66768118778050164e260c01b61174f565b6113da6744202dce80bbaa1c60c01b61174f565b6113ee674b9c9dd677b1126160c01b61174f565b60008211611431576040517f08c379a000000000000000000000000000000000000000000000000000000000815260040161142890611bfe565b60405180910390fd5b61144567d2d8a20188d2c11560c01b61174f565b61145967ddecba2c80f8017c60c01b61174f565b611468826004546003546106ab565b905061147e67a49f49ea9cdd70ff60c01b61174f565b61149267a3b54dd6404cebe560c01b61174f565b600260009054906101000a900473ffffffffffffffffffffffffffffffffffffffff1673ffffffffffffffffffffffffffffffffffffffff166323b872dd3330856040518463ffffffff1660e01b81526004016114f193929190611c1e565b6020604051808303816000875af1158015611510573d6000803e3d6000fd5b505050506040513d601f19601f820116820180604052508101906115349190611c8d565b5061154967b7097491d7dd527f60c01b61174f565b61155d671c1a746d43a0c27360c01b61174f565b600160009054906101000a900473ffffffffffffffffffffffffffffffffffffffff1673ffffffffffffffffffffffffffffffffffffffff1663a9059cbb33836040518363ffffffff1660e01b81526004016115ba929190611cba565b6020604051808303816000875af11580156115d9573d6000803e3d6000fd5b505050506040513d601f19601f820116820180604052508101906115fd9190611c8d565b50611612678a60e7fe13a663b660c01b61174f565b81600460008282546116249190611d12565b9250508190555061163f67ae2471af1e02f87160c01b61174f565b80600360008282546116519190611d46565b9250508190555061166c67d7bab64f774c960a60c01b61174f565b611680678105dffc6ff5de6b60c01b61174f565b600160009054906101000a900473ffffffffffffffffffffffffffffffffffffffff1673ffffffffffffffffffffffffffffffffffffffff16600260009054906101000a900473ffffffffffffffffffffffffffffffffffffffff1673ffffffffffffffffffffffffffffffffffffffff163373ffffffffffffffffffffffffffffffffffffffff167fcd3829a3813dc3cdd188fd3d01dcf3268c16be2fdd2dd21d0665418816e46062858560405161173a929190611a83565b60405180910390a461174a6117a1565b919050565b50565b600260005403611797576040517f08c379a000000000000000000000000000000000000000000000000000000000815260040161178e9061204f565b60405180910390fd5b6002600081905550565b6001600081905550565b60008082036117bd576000905061189f565b600060016117ca846118bd565b901c6001901b905060018184816117e4576117e3611dbc565b5b048201901c905060018184816117fd576117fc611dbc565b5b048201901c9050600181848161181657611815611dbc565b5b048201901c9050600181848161182f5761182e611dbc565b5b048201901c9050600181848161184857611847611dbc565b5b048201901c9050600181848161186157611860611dbc565b5b048201901c9050600181848161187a57611879611dbc565b5b048201901c905061189b8182858161189557611894611dbc565b5b046118a4565b9150505b919050565b60008183106118b357816118b5565b825b905092915050565b600080600090506000608084901c11156118df57608083901c92506080810190505b6000604084901c11156118fa57604083901c92506040810190505b6000602084901c111561191557602083901c92506020810190505b6000601084901c111561193057601083901c92506010810190505b6000600884901c111561194b57600883901c92506008810190505b6000600484901c111561196657600483901c92506004810190505b6000600284901c111561198157600283901c92506002810190505b6000600184901c1115611995576001810190505b80915050919050565b600080fd5b6000819050919050565b6119b6816119a3565b81146119c157600080fd5b50565b6000813590506119d3816119ad565b92915050565b6000602082840312156119ef576119ee61199e565b5b60006119fd848285016119c4565b91505092915050565b611a0f816119a3565b82525050565b6000602082019050611a2a6000830184611a06565b92915050565b600080600060608486031215611a4957611a4861199e565b5b6000611a57868287016119c4565b9350506020611a68868287016119c4565b9250506040611a79868287016119c4565b9150509250925092565b6000604082019050611a986000830185611a06565b611aa56020830184611a06565b9392505050565b600073ffffffffffffffffffffffffffffffffffffffff82169050919050565b6000611ad782611aac565b9050919050565b611ae781611acc565b82525050565b6000602082019050611b026000830184611ade565b92915050565b60008060408385031215611b1f57611b1e61199e565b5b6000611b2d858286016119c4565b9250506020611b3e858286016119c4565b9150509250929050565b611b5181611acc565b8114611b5c57600080fd5b50565b600081359050611b6e81611b48565b92915050565b600060208284031215611b8a57611b8961199e565b5b6000611b9884828501611b5f565b91505092915050565b600082825260208201905092915050565b7f5a65726f20616d6f756e74000000000000000000000000000000000000000000600082015250565b6000611be8600b83611ba1565b9150611bf382611bb2565b602082019050919050565b60006020820190508181036000830152611c1781611bdb565b9050919050565b6000606082019050611c336000830186611ade565b611c406020830185611ade565b611c4d6040830184611a06565b949350505050565b60008115159050919050565b611c6a81611c55565b8114611c7557600080fd5b50565b600081519050611c8781611c61565b92915050565b600060208284031215611ca357611ca261199e565b5b6000611cb184828501611c78565b91505092915050565b6000604082019050611ccf6000830185611ade565b611cdc6020830184611a06565b9392505050565b7f4e487b7100000000000000000000000000000000000000000000000000000000600052601160045260246000fd5b6000611d1d826119a3565b9150611d28836119a3565b9250828201905080821115611d4057611d3f611ce3565b5b92915050565b6000611d51826119a3565b9150611d5c836119a3565b9250828203905081811115611d7457611d73611ce3565b5b92915050565b6000611d85826119a3565b9150611d90836119a3565b9250828202611d9e816119a3565b91508282048414831517611db557611db4611ce3565b5b5092915050565b7f4e487b7100000000000000000000000000000000000000000000000000000000600052601260045260246000fd5b6000611df6826119a3565b9150611e01836119a3565b925082611e1157611e10611dbc565b5b828204905092915050565b7f5a65726f20726573657276657300000000000000000000000000000000000000600082015250565b6000611e52600d83611ba1565b9150611e5d82611e1c565b602082019050919050565b60006020820190508181036000830152611e8181611e45565b9050919050565b7f496e76616c696420616d6f756e74000000000000000000000000000000000000600082015250565b6000611ebe600e83611ba1565b9150611ec982611e88565b602082019050919050565b60006020820190508181036000830152611eed81611eb1565b9050919050565b6000606082019050611f096000830186611a06565b611f166020830185611a06565b611f236040830184611a06565b949350505050565b7f5a65726f20616d6f756e74730000000000000000000000000000000000000000600082015250565b6000611f61600c83611ba1565b9150611f6c82611f2b565b602082019050919050565b60006020820190508181036000830152611f9081611f54565b9050919050565b7f496e73756666696369656e74206c697175696469747900000000000000000000600082015250565b6000611fcd601683611ba1565b9150611fd882611f97565b602082019050919050565b60006020820190508181036000830152611ffc81611fc0565b9050919050565b7f5265656e7472616e637947756172643a207265656e7472616e742063616c6c00600082015250565b6000612039601f83611ba1565b915061204482612003565b602082019050919050565b600060208201905081810360008301526120688161202c565b905091905056fea2646970667358221220f867a496f471471c34eade5dcb8d677528013b37724cf125384591588c3d769664736f6c63430008130033",
  "linkReferences": {},
  "deployedLinkReferences": {}
}